/*
===============================================================================
Author      : Rafael Binda
Created     : 2026-05-03
Version     : 1.0
Task        : Q0029 - SQL Successful Multiple Page Restore
Object      : Script
Description : Creates a dedicated lab database to demonstrate a successful
              multiple Page Restore operation after data page corruption,
              restoring three damaged pages in the same restore command using
              a full backup, log backup and tail-log backup
Notes       : 04-database-recovery/notes/A0031-page-restore.md
===============================================================================
INDEX
1  - Important warning
2  - Create lab database
3  - Create lab table and indexes
4  - Insert sample data
5  - Configure PAGE_VERIFY CHECKSUM
6  - Create initial backups
7  - Review database files and PAGE_VERIFY
8  - Review index metadata
9  - Prepare helper tables
10 - List table pages with DBCC IND
11 - Identify three data pages for Page Restore
12 - Inspect selected data pages with DBCC PAGE
13 - Corrupt selected data pages with DBCC WRITEPAGE
14 - Validate data page corruption
15 - Review suspect_pages
16 - Run DBCC CHECKDB before Multiple Page Restore
17 - Execute tail-log backup before Multiple Page Restore
18 - Restore damaged pages from full backup
19 - Restore log backup
20 - Restore tail-log backup WITH RECOVERY
21 - Validate data after successful Multiple Page Restore
22 - Review suspect_pages after Multiple Page Restore
23 - Cleanup lab database and helper tables
===============================================================================
*/

-------------------------------------------------------------------------------
-- 1 - Important warning
-------------------------------------------------------------------------------

/*
WARNING

This script is for laboratory use only

It intentionally corrupts database pages using DBCC WRITEPAGE

Do not execute this script in production

Do not execute this script in any database that contains important data

DBCC WRITEPAGE writes directly to database pages
It is not logged as a normal data modification
It does not support rollback
It can permanently damage the database

This hands-on demonstrates a successful Multiple Page Restore strategy

The goal is to restore three damaged pages from a valid full backup and then
apply the log chain to bring those pages back to a consistent point

This scenario is safer than using DBCC CHECKDB with REPAIR_ALLOW_DATA_LOSS
because it is based on restoring from valid backups
*/

USE master;
GO

-------------------------------------------------------------------------------
-- 2 - Create lab database
-------------------------------------------------------------------------------

IF DB_ID('ExamplesDB_MultiplePageRestore') IS NOT NULL
BEGIN
    ALTER DATABASE ExamplesDB_MultiplePageRestore SET SINGLE_USER WITH ROLLBACK IMMEDIATE;
    DROP DATABASE ExamplesDB_MultiplePageRestore;
END;
GO

CREATE DATABASE ExamplesDB_MultiplePageRestore;
GO

ALTER DATABASE ExamplesDB_MultiplePageRestore SET RECOVERY FULL;
GO

USE ExamplesDB_MultiplePageRestore;
GO

-------------------------------------------------------------------------------
-- 3 - Create lab table and indexes
-------------------------------------------------------------------------------

/*
This lab uses a wider FullName column to force the clustered index to allocate
multiple data pages

The goal is to have at least three data pages available for the restore test
*/

DROP TABLE IF EXISTS dbo.Customer;
GO

CREATE TABLE dbo.Customer
(
    CustomerID INT NOT NULL,
    FullName CHAR(13) NOT NULL,
    PhoneNumber VARCHAR(9) NOT NULL,
    Notes CHAR(2000) NOT NULL,
    CONSTRAINT PK_Customer PRIMARY KEY CLUSTERED (CustomerID)
);
GO

CREATE UNIQUE NONCLUSTERED INDEX IXU_Customer_FullName
ON dbo.Customer (FullName);
GO

-------------------------------------------------------------------------------
-- 4 - Insert sample data
-------------------------------------------------------------------------------

/*
The amount of rows is intentionally larger than the previous Page Restore lab

This helps generate multiple data pages for dbo.Customer
*/

DECLARE @Counter INT = 1;

WHILE @Counter <= 10
BEGIN
    INSERT INTO dbo.Customer
    (
        CustomerID,
        FullName,
        PhoneNumber,
        Notes
    )
    VALUES
    (
        @Counter,
        'Customer ' + RIGHT('0000' + CAST(@Counter AS VARCHAR(4)), 4),
        RIGHT('0000' + CAST(@Counter AS VARCHAR(4)), 4) + '-' + RIGHT('0000' + CAST(@Counter AS VARCHAR(4)), 4),
        REPLICATE('X', 2000)
    );

    SET @Counter += 1;
END;
GO

SELECT
CustomerID,
FullName,
PhoneNumber,
substring(Notes,1,30) as Notes
FROM dbo.Customer
ORDER BY CustomerID;
GO

/*
Result:
CustomerID	FullName	    PhoneNumber	Notes
1	        Customer 0001	0001-0001	XXXXXXXXXXXXXXXXXXXXXXXXXXXXXX
2	        Customer 0002	0002-0002	XXXXXXXXXXXXXXXXXXXXXXXXXXXXXX
3	        Customer 0003	0003-0003	XXXXXXXXXXXXXXXXXXXXXXXXXXXXXX
4	        Customer 0004	0004-0004	XXXXXXXXXXXXXXXXXXXXXXXXXXXXXX
5	        Customer 0005	0005-0005	XXXXXXXXXXXXXXXXXXXXXXXXXXXXXX
6	        Customer 0006	0006-0006	XXXXXXXXXXXXXXXXXXXXXXXXXXXXXX
7	        Customer 0007	0007-0007	XXXXXXXXXXXXXXXXXXXXXXXXXXXXXX
8	        Customer 0008	0008-0008	XXXXXXXXXXXXXXXXXXXXXXXXXXXXXX
9	        Customer 0009	0009-0009	XXXXXXXXXXXXXXXXXXXXXXXXXXXXXX
10	        Customer 0010	0010-0010	XXXXXXXXXXXXXXXXXXXXXXXXXXXXXX
*/

SELECT
COUNT(*) AS total_rows_before_corruption
FROM dbo.Customer;
GO

/*
Result:
total_rows_before_corruption
10
*/

-------------------------------------------------------------------------------
-- 5 - Configure PAGE_VERIFY CHECKSUM
-------------------------------------------------------------------------------

ALTER DATABASE ExamplesDB_MultiplePageRestore SET PAGE_VERIFY CHECKSUM;
GO

-------------------------------------------------------------------------------
-- 6 - Create initial backups
-------------------------------------------------------------------------------

BACKUP DATABASE ExamplesDB_MultiplePageRestore
TO DISK = 'C:\Backups\ExamplesDB_MultiplePageRestore_FULL.bak'
WITH FORMAT, CHECKSUM, COMPRESSION, STATS = 10;
GO

/*
Result:
11 percent processed.
20 percent processed.
31 percent processed.
40 percent processed.
50 percent processed.
61 percent processed.
70 percent processed.
81 percent processed.
90 percent processed.
100 percent processed.
Processed 440 pages for database 'ExamplesDB_MultiplePageRestore', file 'ExamplesDB_MultiplePageRestore' on file 1.
Processed 2 pages for database 'ExamplesDB_MultiplePageRestore', file 'ExamplesDB_MultiplePageRestore_log' on file 1.
BACKUP DATABASE successfully processed 442 pages in 0.032 seconds (107.788 MB/sec).
Completion time: 2026-05-03T16:48:23.3264047-03:00
*/

BACKUP LOG ExamplesDB_MultiplePageRestore
TO DISK = 'C:\Backups\ExamplesDB_MultiplePageRestore_LOG_001.trn'
WITH FORMAT, CHECKSUM, COMPRESSION, STATS = 10;
GO

/*
Result:
100 percent processed.
Processed 3 pages for database 'ExamplesDB_MultiplePageRestore', file 'ExamplesDB_MultiplePageRestore_log' on file 1.
BACKUP LOG successfully processed 3 pages in 0.005 seconds (4.687 MB/sec).
Completion time: 2026-05-03T16:48:35.8706708-03:00
*/

-------------------------------------------------------------------------------
-- 7 - Review database files and PAGE_VERIFY
-------------------------------------------------------------------------------

SELECT
name AS database_name,
recovery_model_desc,
page_verify_option_desc,
state_desc
FROM sys.databases
WHERE name = 'ExamplesDB_MultiplePageRestore';
GO

/*
Result:
database_name	                recovery_model_desc  page_verify_option_desc	state_desc
ExamplesDB_MultiplePageRestore	FULL	             CHECKSUM	                ONLINE
*/

SELECT
DB_NAME(database_id) AS database_name,
file_id,
type_desc,
name AS logical_name,
physical_name,
state_desc
FROM sys.master_files
WHERE database_id = DB_ID('ExamplesDB_MultiplePageRestore')
ORDER BY file_id;
GO

/*
Result:
database_name	                file_id	type_desc	logical_name	                    physical_name	                                            state_desc
ExamplesDB_MultiplePageRestore	1	    ROWS	    ExamplesDB_MultiplePageRestore	    C:\MSSQLSERVER\DATA\ExamplesDB_MultiplePageRestore.mdf	    ONLINE
ExamplesDB_MultiplePageRestore	2	    LOG	        ExamplesDB_MultiplePageRestore_log	C:\MSSQLSERVER\LOG\ExamplesDB_MultiplePageRestore_log.ldf	ONLINE
*/

-------------------------------------------------------------------------------
-- 8 - Review index metadata
-------------------------------------------------------------------------------

SELECT
i.name AS index_name,
i.index_id,
i.type,
i.type_desc,
i.is_unique,
i.is_primary_key
FROM sys.indexes AS i
WHERE i.object_id = OBJECT_ID('dbo.Customer')
ORDER BY i.index_id;
GO

/*
Result:
index_name	            index_id	type	type_desc	    is_unique	is_primary_key
PK_Customer	            1	        1	    CLUSTERED	    1	        1
IXU_Customer_FullName	2	        2	    NONCLUSTERED	1	        0
*/

-------------------------------------------------------------------------------
-- 9 - Prepare helper tables
-------------------------------------------------------------------------------

/*
The helper tables are created in tempdb on purpose

They keep the selected page information available across multiple batches,
including the restore section executed from master

This avoids depending on a local temporary table later in the script
*/
 
DROP TABLE IF EXISTS dbo.#Q0029_DBCCIND;
GO

DROP TABLE IF EXISTS dbo.#Q0029_PageRestoreTarget;
GO

CREATE TABLE dbo.#Q0029_DBCCIND
(
    PageFID TINYINT,
    PagePID INT,
    IAMFID TINYINT NULL,
    IAMPID INT NULL,
    ObjectID INT,
    IndexID INT,
    PartitionNumber INT,
    PartitionID BIGINT,
    iam_chain_type VARCHAR(64),
    PageType TINYINT,
    IndexLevel TINYINT NULL,
    NextPageFID TINYINT,
    NextPagePID INT,
    PrevPageFID TINYINT,
    PrevPagePID INT
);
GO

CREATE TABLE dbo.#Q0029_PageRestoreTarget
(
    target_id INT IDENTITY(1,1) NOT NULL,
    database_name SYSNAME NOT NULL,
    schema_name SYSNAME NOT NULL,
    table_name SYSNAME NOT NULL,
    index_name SYSNAME NULL,
    file_id INT NOT NULL,
    page_id INT NOT NULL,
    page_restore_address VARCHAR(50) NOT NULL,
    page_type TINYINT NOT NULL,
    index_id INT NOT NULL,
    captured_at DATETIME2 NOT NULL DEFAULT SYSDATETIME()
);
GO

-------------------------------------------------------------------------------
-- 10 - List table pages with DBCC IND
-------------------------------------------------------------------------------

/*
DBCC IND lists pages that belong to a table or index

PageType 1  = Data Page
PageType 2  = Index Page
PageType 10 = IAM Page
IndexLevel 0 = leaf level
*/

DBCC TRACEON (2588);
GO

/*
Result:
DBCC execution completed. If DBCC printed error messages, contact your system administrator.
Completion time: 2026-05-03T16:49:14.0224850-03:00
*/

DBCC TRACEON (3604);
GO

/*
Result:
DBCC execution completed. If DBCC printed error messages, contact your system administrator.
Completion time: 2026-05-03T16:49:21.5867714-03:00
*/

DBCC HELP ('IND');
GO

/*
Result:
dbcc IND ( { 'dbname' | dbid }, { 'objname' | objid }, { nonclustered indid | 1 | 0 | -1 | -2 } [, partition_number] )
DBCC execution completed. If DBCC printed error messages, contact your system administrator.
Completion time: 2026-05-03T16:49:29.7128512-03:00
*/

DBCC IND ('ExamplesDB_MultiplePageRestore', 'dbo.Customer', -1);
GO

INSERT INTO tempdb.dbo.#Q0029_DBCCIND
EXEC ('DBCC IND (''ExamplesDB_MultiplePageRestore'', ''dbo.Customer'', -1)');
GO

SELECT
PageFID,
PagePID,
IAMFID,
IAMPID,
ObjectID,
IndexID,
PartitionNumber,
PartitionID,
iam_chain_type,
PageType,
IndexLevel,
NextPageFID,
NextPagePID,
PrevPageFID,
PrevPagePID
FROM tempdb.dbo.#Q0029_DBCCIND
ORDER BY IndexID, PageType, PagePID;
GO

/*
Result:
PageFID	PagePID	IAMFID	IAMPID	ObjectID	IndexID	PartitionNumber	PartitionID	        iam_chain_type	PageType	    IndexLevel	   NextPageFID	NextPagePID	PrevPageFID	PrevPagePID
1	    147	    NULL	NULL	901578250	1	    1	            72057594045726720	In-row data	    10 (IAM Page)	NULL	       0	        0	        0	        0
1	    280	    1	    147	    901578250	1	    1	            72057594045726720	In-row data	    1  (Data Page)  0 (leaf level) 1	        282	        0	        0
1	    281	    1	    147	    901578250	1	    1	            72057594045726720	In-row data	    2  (Index Page) 1	           0	        0	        0	        0
1	    282	    1	    147	    901578250	1	    1	            72057594045726720	In-row data	    1  (Data Page)  0 (leaf level) 1	        283	        1	        280
1	    283	    1	    147	    901578250	1	    1	            72057594045726720	In-row data	    1  (Data Page)  0 (leaf level) 1	        284	        1	        282
1	    284	    1	    147	    901578250	1	    1	            72057594045726720	In-row data	    1  (Data Page)  0 (leaf level) 0	        0	        1	        283
1	    150	    NULL	NULL	901578250	2	    1	            72057594045792256	In-row data	    10 (IAM Page)   NULL	       0	        0	        0	        0
1	    288	    1	    150	    901578250	2	    1	            72057594045792256	In-row data	    2  (Index Page) 0 (leaf level) 0	        0	        0	        0
*/

-------------------------------------------------------------------------------
-- 11 - Identify three data pages for Page Restore
-------------------------------------------------------------------------------

/*
The selected pages must be data pages from the clustered index

PageType = 1 means Data Page
IndexID  = 1 means clustered index

This lab selects three data pages and stores their page addresses in tempdb
*/

DELETE FROM tempdb.dbo.#Q0029_PageRestoreTarget
WHERE database_name = 'ExamplesDB_MultiplePageRestore';
GO

INSERT INTO tempdb.dbo.#Q0029_PageRestoreTarget
(
    database_name,
    schema_name,
    table_name,
    index_name,
    file_id,
    page_id,
    page_restore_address,
    page_type,
    index_id
)
SELECT TOP (3)
'ExamplesDB_MultiplePageRestore' AS database_name,
'dbo' AS schema_name,
'Customer' AS table_name,
'PK_Customer' AS index_name,
PageFID AS file_id,
PagePID AS page_id,
CAST(PageFID AS VARCHAR(20)) + ':' + CAST(PagePID AS VARCHAR(20)) AS page_restore_address,
PageType AS page_type,
IndexID AS index_id
FROM tempdb.dbo.#Q0029_DBCCIND
WHERE PageType = 1
AND IndexID = 1
ORDER BY PagePID;
GO

SELECT 
database_name,
schema_name,
table_name,
index_name,
file_id,
page_id,
page_restore_address,
page_type,
index_id,
captured_at
FROM tempdb.dbo.#Q0029_PageRestoreTarget
WHERE database_name = 'ExamplesDB_MultiplePageRestore'
ORDER BY target_id;
GO

/*
Important:
If this query returns fewer than three rows, the table did not allocate enough
data pages

In that case, increase the number of inserted rows in section 4 and recreate
the lab database

Result:
database_name	                schema_name table_name	index_name	file_id	 page_id	page_restore_address	page_type	index_id	captured_at
ExamplesDB_MultiplePageRestore	dbo	        Customer	PK_Customer	1	     280	    1:280	                1	        1	        2026-05-03 17:04:39.0786108
ExamplesDB_MultiplePageRestore	dbo	        Customer	PK_Customer	1	     282	    1:282	                1	        1	        2026-05-03 17:04:39.0786108
ExamplesDB_MultiplePageRestore	dbo	        Customer	PK_Customer	1	     283	    1:283	                1	        1	        2026-05-03 17:04:39.0786108
*/

-------------------------------------------------------------------------------
-- 12 - Inspect selected data pages with DBCC PAGE
-------------------------------------------------------------------------------

/*
DBCC PAGE with print option 3 shows the page header and row contents
The selected page addresses will also be used later by RESTORE DATABASE ... PAGE
*/

DECLARE
@DataPageFID INT,
@DataPagePID INT,
@SQL NVARCHAR(MAX);

DECLARE PageCursor CURSOR LOCAL FAST_FORWARD FOR
SELECT
file_id,
page_id
FROM tempdb.dbo.#Q0029_PageRestoreTarget
WHERE database_name = 'ExamplesDB_MultiplePageRestore'
ORDER BY target_id;

OPEN PageCursor;

FETCH NEXT FROM PageCursor INTO
@DataPageFID,
@DataPagePID;

WHILE @@FETCH_STATUS = 0
BEGIN
    SET @SQL = N'DBCC PAGE (''ExamplesDB_MultiplePageRestore'', '
             + CAST(@DataPageFID AS NVARCHAR(20))
             + N', '
             + CAST(@DataPagePID AS NVARCHAR(20))
             + N', 3);';

    PRINT(@SQL);
    EXEC (@SQL);

    FETCH NEXT FROM PageCursor INTO
    @DataPageFID,
    @DataPagePID;
END;

CLOSE PageCursor;
DEALLOCATE PageCursor;
GO

/*
Result:
Database name 'tempdb' ignored, referencing object in tempdb.
DBCC PAGE ('ExamplesDB_MultiplePageRestore', 1, 280, 3);

PAGE: (1:280)


BUFFER:


BUF @0x000001F7892E6CC0

bpage = 0x000001F605A12000          bPmmpage = 0x0000000000000000       bsort_r_nextbP = 0x000001F7892E6C10
bsort_r_prevbP = 0x0000000000000000 bhash = 0x0000000000000000          bpageno = (1:280)
bpart = 3                           bstat = 0x109                       breferences = 0
berrcode = 0                        bUse1 = 26468                       bstat2 = 0x0
blog = 0xab21cc8a                   bsampleCount = 0                    bIoCount = 0
resPoolId = 0                       bcputicks = 0                       bReadMicroSec = 775
bDirtyPendingCount = 0              bDirtyContext = 0x0000000000000000  bDbPageBroker = 0x0000000000000000
bdbid = 23                          bpru = 0x000001F604300040           

PAGE HEADER:


Page @0x000001F605A12000

m_pageId = (1:280)                  m_headerVersion = 1                 m_type = 1
m_typeFlagBits = 0x0                m_level = 0                         m_flagBits = 0x200
m_objId (AllocUnitId.idObj) = 222   m_indexId (AllocUnitId.idInd) = 256 Metadata: AllocUnitId = 72057594052476928
Metadata: PartitionId = 72057594045726720                                Metadata: IndexId = 1
Metadata: ObjectId = 901578250      m_prevPage = (0:0)                  m_nextPage = (1:282)
pminlen = 2021                      m_slotCnt = 3                       m_freeCnt = 1979
m_freeData = 6207                   m_reservedCnt = 0                   m_lsn = (39:280:23)
m_xactReserved = 0                  m_xdesId = (0:0)                    m_ghostRecCnt = 0
m_tornBits = 1737678809             DB Frag ID = 1                      

Allocation Status

GAM (1:2) = ALLOCATED               SGAM (1:3) = NOT ALLOCATED          PFS (1:1) = 0x40 ALLOCATED   0_PCT_FULL
DIFF (1:6) = NOT CHANGED            ML (1:7) = NOT MIN_LOGGED           

Slot 0 Offset 0x60 Length 2037

Record Type = PRIMARY_RECORD        Record Attributes =  NULL_BITMAP VARIABLE_COLUMNS
Record Size = 2037                  
Memory Dump @0x000000841CD70060

0000000000000000:   3000e507 01000000 43757374 6f6d6572 20303030  0.ĺ.....Customer 000
0000000000000014:   31585858 58585858 58585858 58585858 58585858  1XXXXXXXXXXXXXXXXXXX
0000000000000028:   58585858 58585858 58585858 58585858 58585858  XXXXXXXXXXXXXXXXXXXX
000000000000003C:   58585858 58585858 58585858 58585858 58585858  XXXXXXXXXXXXXXXXXXXX
0000000000000050:   58585858 58585858 58585858 58585858 58585858  XXXXXXXXXXXXXXXXXXXX
0000000000000064:   58585858 58585858 58585858 58585858 58585858  XXXXXXXXXXXXXXXXXXXX
0000000000000078:   58585858 58585858 58585858 58585858 58585858  XXXXXXXXXXXXXXXXXXXX
000000000000008C:   58585858 58585858 58585858 58585858 58585858  XXXXXXXXXXXXXXXXXXXX
00000000000000A0:   58585858 58585858 58585858 58585858 58585858  XXXXXXXXXXXXXXXXXXXX
00000000000000B4:   58585858 58585858 58585858 58585858 58585858  XXXXXXXXXXXXXXXXXXXX
00000000000000C8:   58585858 58585858 58585858 58585858 58585858  XXXXXXXXXXXXXXXXXXXX
00000000000000DC:   58585858 58585858 58585858 58585858 58585858  XXXXXXXXXXXXXXXXXXXX
00000000000000F0:   58585858 58585858 58585858 58585858 58585858  XXXXXXXXXXXXXXXXXXXX
0000000000000104:   58585858 58585858 58585858 58585858 58585858  XXXXXXXXXXXXXXXXXXXX
0000000000000118:   58585858 58585858 58585858 58585858 58585858  XXXXXXXXXXXXXXXXXXXX
000000000000012C:   58585858 58585858 58585858 58585858 58585858  XXXXXXXXXXXXXXXXXXXX
0000000000000140:   58585858 58585858 58585858 58585858 58585858  XXXXXXXXXXXXXXXXXXXX
0000000000000154:   58585858 58585858 58585858 58585858 58585858  XXXXXXXXXXXXXXXXXXXX
0000000000000168:   58585858 58585858 58585858 58585858 58585858  XXXXXXXXXXXXXXXXXXXX
000000000000017C:   58585858 58585858 58585858 58585858 58585858  XXXXXXXXXXXXXXXXXXXX
0000000000000190:   58585858 58585858 58585858 58585858 58585858  XXXXXXXXXXXXXXXXXXXX
00000000000001A4:   58585858 58585858 58585858 58585858 58585858  XXXXXXXXXXXXXXXXXXXX
00000000000001B8:   58585858 58585858 58585858 58585858 58585858  XXXXXXXXXXXXXXXXXXXX
00000000000001CC:   58585858 58585858 58585858 58585858 58585858  XXXXXXXXXXXXXXXXXXXX
00000000000001E0:   58585858 58585858 58585858 58585858 58585858  XXXXXXXXXXXXXXXXXXXX
00000000000001F4:   58585858 58585858 58585858 58585858 58585858  XXXXXXXXXXXXXXXXXXXX
0000000000000208:   58585858 58585858 58585858 58585858 58585858  XXXXXXXXXXXXXXXXXXXX
000000000000021C:   58585858 58585858 58585858 58585858 58585858  XXXXXXXXXXXXXXXXXXXX
0000000000000230:   58585858 58585858 58585858 58585858 58585858  XXXXXXXXXXXXXXXXXXXX
0000000000000244:   58585858 58585858 58585858 58585858 58585858  XXXXXXXXXXXXXXXXXXXX
0000000000000258:   58585858 58585858 58585858 58585858 58585858  XXXXXXXXXXXXXXXXXXXX
000000000000026C:   58585858 58585858 58585858 58585858 58585858  XXXXXXXXXXXXXXXXXXXX
0000000000000280:   58585858 58585858 58585858 58585858 58585858  XXXXXXXXXXXXXXXXXXXX
0000000000000294:   58585858 58585858 58585858 58585858 58585858  XXXXXXXXXXXXXXXXXXXX
00000000000002A8:   58585858 58585858 58585858 58585858 58585858  XXXXXXXXXXXXXXXXXXXX
00000000000002BC:   58585858 58585858 58585858 58585858 58585858  XXXXXXXXXXXXXXXXXXXX
00000000000002D0:   58585858 58585858 58585858 58585858 58585858  XXXXXXXXXXXXXXXXXXXX
00000000000002E4:   58585858 58585858 58585858 58585858 58585858  XXXXXXXXXXXXXXXXXXXX
00000000000002F8:   58585858 58585858 58585858 58585858 58585858  XXXXXXXXXXXXXXXXXXXX
000000000000030C:   58585858 58585858 58585858 58585858 58585858  XXXXXXXXXXXXXXXXXXXX
0000000000000320:   58585858 58585858 58585858 58585858 58585858  XXXXXXXXXXXXXXXXXXXX
0000000000000334:   58585858 58585858 58585858 58585858 58585858  XXXXXXXXXXXXXXXXXXXX
0000000000000348:   58585858 58585858 58585858 58585858 58585858  XXXXXXXXXXXXXXXXXXXX
000000000000035C:   58585858 58585858 58585858 58585858 58585858  XXXXXXXXXXXXXXXXXXXX
0000000000000370:   58585858 58585858 58585858 58585858 58585858  XXXXXXXXXXXXXXXXXXXX
0000000000000384:   58585858 58585858 58585858 58585858 58585858  XXXXXXXXXXXXXXXXXXXX
0000000000000398:   58585858 58585858 58585858 58585858 58585858  XXXXXXXXXXXXXXXXXXXX
00000000000003AC:   58585858 58585858 58585858 58585858 58585858  XXXXXXXXXXXXXXXXXXXX
00000000000003C0:   58585858 58585858 58585858 58585858 58585858  XXXXXXXXXXXXXXXXXXXX
00000000000003D4:   58585858 58585858 58585858 58585858 58585858  XXXXXXXXXXXXXXXXXXXX
00000000000003E8:   58585858 58585858 58585858 58585858 58585858  XXXXXXXXXXXXXXXXXXXX
00000000000003FC:   58585858 58585858 58585858 58585858 58585858  XXXXXXXXXXXXXXXXXXXX
0000000000000410:   58585858 58585858 58585858 58585858 58585858  XXXXXXXXXXXXXXXXXXXX
0000000000000424:   58585858 58585858 58585858 58585858 58585858  XXXXXXXXXXXXXXXXXXXX
0000000000000438:   58585858 58585858 58585858 58585858 58585858  XXXXXXXXXXXXXXXXXXXX
000000000000044C:   58585858 58585858 58585858 58585858 58585858  XXXXXXXXXXXXXXXXXXXX
0000000000000460:   58585858 58585858 58585858 58585858 58585858  XXXXXXXXXXXXXXXXXXXX
0000000000000474:   58585858 58585858 58585858 58585858 58585858  XXXXXXXXXXXXXXXXXXXX
0000000000000488:   58585858 58585858 58585858 58585858 58585858  XXXXXXXXXXXXXXXXXXXX
000000000000049C:   58585858 58585858 58585858 58585858 58585858  XXXXXXXXXXXXXXXXXXXX
00000000000004B0:   58585858 58585858 58585858 58585858 58585858  XXXXXXXXXXXXXXXXXXXX
00000000000004C4:   58585858 58585858 58585858 58585858 58585858  XXXXXXXXXXXXXXXXXXXX
00000000000004D8:   58585858 58585858 58585858 58585858 58585858  XXXXXXXXXXXXXXXXXXXX
00000000000004EC:   58585858 58585858 58585858 58585858 58585858  XXXXXXXXXXXXXXXXXXXX
0000000000000500:   58585858 58585858 58585858 58585858 58585858  XXXXXXXXXXXXXXXXXXXX
0000000000000514:   58585858 58585858 58585858 58585858 58585858  XXXXXXXXXXXXXXXXXXXX
0000000000000528:   58585858 58585858 58585858 58585858 58585858  XXXXXXXXXXXXXXXXXXXX
000000000000053C:   58585858 58585858 58585858 58585858 58585858  XXXXXXXXXXXXXXXXXXXX
0000000000000550:   58585858 58585858 58585858 58585858 58585858  XXXXXXXXXXXXXXXXXXXX
0000000000000564:   58585858 58585858 58585858 58585858 58585858  XXXXXXXXXXXXXXXXXXXX
0000000000000578:   58585858 58585858 58585858 58585858 58585858  XXXXXXXXXXXXXXXXXXXX
000000000000058C:   58585858 58585858 58585858 58585858 58585858  XXXXXXXXXXXXXXXXXXXX
00000000000005A0:   58585858 58585858 58585858 58585858 58585858  XXXXXXXXXXXXXXXXXXXX
00000000000005B4:   58585858 58585858 58585858 58585858 58585858  XXXXXXXXXXXXXXXXXXXX
00000000000005C8:   58585858 58585858 58585858 58585858 58585858  XXXXXXXXXXXXXXXXXXXX
00000000000005DC:   58585858 58585858 58585858 58585858 58585858  XXXXXXXXXXXXXXXXXXXX
00000000000005F0:   58585858 58585858 58585858 58585858 58585858  XXXXXXXXXXXXXXXXXXXX
0000000000000604:   58585858 58585858 58585858 58585858 58585858  XXXXXXXXXXXXXXXXXXXX
0000000000000618:   58585858 58585858 58585858 58585858 58585858  XXXXXXXXXXXXXXXXXXXX
000000000000062C:   58585858 58585858 58585858 58585858 58585858  XXXXXXXXXXXXXXXXXXXX
0000000000000640:   58585858 58585858 58585858 58585858 58585858  XXXXXXXXXXXXXXXXXXXX
0000000000000654:   58585858 58585858 58585858 58585858 58585858  XXXXXXXXXXXXXXXXXXXX
0000000000000668:   58585858 58585858 58585858 58585858 58585858  XXXXXXXXXXXXXXXXXXXX
000000000000067C:   58585858 58585858 58585858 58585858 58585858  XXXXXXXXXXXXXXXXXXXX
0000000000000690:   58585858 58585858 58585858 58585858 58585858  XXXXXXXXXXXXXXXXXXXX
00000000000006A4:   58585858 58585858 58585858 58585858 58585858  XXXXXXXXXXXXXXXXXXXX
00000000000006B8:   58585858 58585858 58585858 58585858 58585858  XXXXXXXXXXXXXXXXXXXX
00000000000006CC:   58585858 58585858 58585858 58585858 58585858  XXXXXXXXXXXXXXXXXXXX
00000000000006E0:   58585858 58585858 58585858 58585858 58585858  XXXXXXXXXXXXXXXXXXXX
00000000000006F4:   58585858 58585858 58585858 58585858 58585858  XXXXXXXXXXXXXXXXXXXX
0000000000000708:   58585858 58585858 58585858 58585858 58585858  XXXXXXXXXXXXXXXXXXXX
000000000000071C:   58585858 58585858 58585858 58585858 58585858  XXXXXXXXXXXXXXXXXXXX
0000000000000730:   58585858 58585858 58585858 58585858 58585858  XXXXXXXXXXXXXXXXXXXX
0000000000000744:   58585858 58585858 58585858 58585858 58585858  XXXXXXXXXXXXXXXXXXXX
0000000000000758:   58585858 58585858 58585858 58585858 58585858  XXXXXXXXXXXXXXXXXXXX
000000000000076C:   58585858 58585858 58585858 58585858 58585858  XXXXXXXXXXXXXXXXXXXX
0000000000000780:   58585858 58585858 58585858 58585858 58585858  XXXXXXXXXXXXXXXXXXXX
0000000000000794:   58585858 58585858 58585858 58585858 58585858  XXXXXXXXXXXXXXXXXXXX
00000000000007A8:   58585858 58585858 58585858 58585858 58585858  XXXXXXXXXXXXXXXXXXXX
00000000000007BC:   58585858 58585858 58585858 58585858 58585858  XXXXXXXXXXXXXXXXXXXX
00000000000007D0:   58585858 58585858 58585858 58585858 58585858  XXXXXXXXXXXXXXXXXXXX
00000000000007E4:   58040000 0100f507 30303031 2d303030 31        X.....ő.0001-0001

Slot 0 Column 1 Offset 0x4 Length 4 Length (physical) 4

CustomerID = 1                      

Slot 0 Column 2 Offset 0x8 Length 13 Length (physical) 13

FullName = Customer 0001            

Slot 0 Column 3 Offset 0x7ec Length 9 Length (physical) 9

PhoneNumber = 0001-0001             

Slot 0 Column 4 Offset 0x15 Length 2000 Length (physical) 2000

Notes = XXXXXXXXXXXXXXXXXXXXXXXXXXXXXXXXXXXXXXXXXXXXXXXXXXXXXXXXXXXXXXXXXXXXXXXXXXXXXXXXXXXXXXXXXXXXXXXXXXXXXXXXXXXXXXXXXXXXXXXXXXXXXXXXXXXXXXXXXXXXXXXXXXXXXXXXXXXXXXXXXXXXXXXXXXXXXXXXXXX
XXXXXXXXXXXXXXXXXXXXXXXXXXXXXXXXXXXXXXXXXXXXXXXXXXXXXXXXXXXXXXXXXXXXXXXXXXXXXXXXXXXXXXXXXXXXXXXXXXXXXXXXXXXXXXXXXXXXXXXXXXXXXXXXXXXXXXXXXXXXXXXXXXXXXXXXXXXXXXXXXXXXXXXXXXXXXXXXXXXXXXXXXXX
XXXXXXXXXXXXXXXXXXXXXXXXXXXXXXXXXXXXXXXXXXXXXXXXXXXXXXXXXXXXXXXXXXXXXXXXXXXXXXXXXXXXXXXXXXXXXXXXXXXXXXXXXXXXXXXXXXXXXXXXXXXXXXXXXXXXXXXXXXXXXXXXXXXXXXXXXXXXXXXXXXXXXXXXXXXXXXXXXXXXXXXXXXX
XXXXXXXXXXXXXXXXXXXXXXXXXXXXXXXXXXXXXXXXXXXXXXXXXXXXXXXXXXXXXXXXXXXXXXXXXXXXXXXXXXXXXXXXXXXXXXXXXXXXXXXXXXXXXXXXXXXXXXXXXXXXXXXXXXXXXXXXXXXXXXXXXXXXXXXXXXXXXXXXXXXXXXXXXXXXXXXXXXXXXXXXXXX
XXXXXXXXXXXXXXXXXXXXXXXXXXXXXXXXXXXXXXXXXXXXXXXXXXXXXXXXXXXXXXXXXXXXXXXXXXXXXXXXXXXXXXXXXXXXXXXXXXXXXXXXXXXXXXXXXXXXXXXXXXXXXXXXXXXXXXXXXXXXXXXXXXXXXXXXXXXXXXXXXXXXXXXXXXXXXXXXXXXXXXXXXXX
XXXXXXXXXXXXXXXXXXXXXXXXXXXXXXXXXXXXXXXXXXXXXXXXXXXXXXXXXXXXXXXXXXXXXXXXXXXXXXXXXXXXXXXXXXXXXXXXXXXXXXXXXXXXXXXXXXXXXXXXXXXXXXXXXXXXXXXXXXXXXXXXXXXXXXXXXXXXXXXXXXXXXXXXXXXXXXXXXXXXXXXXXXX
XXXXXXXXXXXXXXXXXXXXXXXXXXXXXXXXXXXXXXXXXXXXXXXXXXXXXXXXXXXXXXXXXXXXXXXXXXXXXXXXXXXXXXXXXXXXXXXXXXXXXXXXXXXXXXXXXXXXXXXXXXXXXXXXXXXXXXXXXXXXXXXXXXXXXXXXXXXXXXXXXXXXXXXXXXXXXXXXXXXXXXXXXXX
XXXXXXXXXXXXXXXXXXXXXXXXXXXXXXXXXXXXXXXXXXXXXXXXXXXXXXXXXXXXXXXXXXXXXXXXXXXXXXXXXXXXXXXXXXXXXXXXXXXXXXXXXXXXXXXXXXXXXXXXXXXXXXXXXXXXXXXXXXXXXXXXXXXXXXXXXXXXXXXXXXXXXXXXXXXXXXXXXXXXXXXXXXX
XXXXXXXXXXXXXXXXXXXXXXXXXXXXXXXXXXXXXXXXXXXXXXXXXXXXXXXXXXXXXXXXXXXXXXXXXXXXXXXXXXXXXXXXXXXXXXXXXXXXXXXXXXXXXXXXXXXXXXXXXXXXXXXXXXXXXXXXXXXXXXXXXXXXXXXXXXXXXXXXXXXXXXXXXXXXXXXXXXXXXXXXXXX
XXXXXXXXXXXXXXXXXXXXXXXXXXXXXXXXXXXXXXXXXXXXXXXXXXXXXXXXXXXXXXXXXXXXXXXXXXXXXXXXXXXXXXXXXXXXXXXXXXXXXXXXXXXXXXXXXXXXXXXXXXXXXXXXXXXXXXXXXXXXXXXXXXXXXXXXXXXXXXXXXXXXXXXXXXXXXXXXXXXXXXXXXXX
XXXXXXXXXXXXXXXXXXXXXXXXXXXXXXXXXXXXXXXXXXXXXXXXXXXXXXXXXXXXXXXXXXXXXXXXXXXXXXXXXXXXXXXXXXXXXXXXXXXXXXXXXXXXXXXXXXXXXXXXXXXXXXXXXXXXXXXXXX

Slot 0 Offset 0x0 Length 0 Length (physical) 0

KeyHashValue = (8194443284a0)       
Slot 1 Offset 0x855 Length 2037

Record Type = PRIMARY_RECORD        Record Attributes =  NULL_BITMAP VARIABLE_COLUMNS
Record Size = 2037                  
Memory Dump @0x000000841CD70855

0000000000000000:   3000e507 02000000 43757374 6f6d6572 20303030  0.ĺ.....Customer 000
0000000000000014:   32585858 58585858 58585858 58585858 58585858  2XXXXXXXXXXXXXXXXXXX
0000000000000028:   58585858 58585858 58585858 58585858 58585858  XXXXXXXXXXXXXXXXXXXX
000000000000003C:   58585858 58585858 58585858 58585858 58585858  XXXXXXXXXXXXXXXXXXXX
0000000000000050:   58585858 58585858 58585858 58585858 58585858  XXXXXXXXXXXXXXXXXXXX
0000000000000064:   58585858 58585858 58585858 58585858 58585858  XXXXXXXXXXXXXXXXXXXX
0000000000000078:   58585858 58585858 58585858 58585858 58585858  XXXXXXXXXXXXXXXXXXXX
000000000000008C:   58585858 58585858 58585858 58585858 58585858  XXXXXXXXXXXXXXXXXXXX
00000000000000A0:   58585858 58585858 58585858 58585858 58585858  XXXXXXXXXXXXXXXXXXXX
00000000000000B4:   58585858 58585858 58585858 58585858 58585858  XXXXXXXXXXXXXXXXXXXX
00000000000000C8:   58585858 58585858 58585858 58585858 58585858  XXXXXXXXXXXXXXXXXXXX
00000000000000DC:   58585858 58585858 58585858 58585858 58585858  XXXXXXXXXXXXXXXXXXXX
00000000000000F0:   58585858 58585858 58585858 58585858 58585858  XXXXXXXXXXXXXXXXXXXX
0000000000000104:   58585858 58585858 58585858 58585858 58585858  XXXXXXXXXXXXXXXXXXXX
0000000000000118:   58585858 58585858 58585858 58585858 58585858  XXXXXXXXXXXXXXXXXXXX
000000000000012C:   58585858 58585858 58585858 58585858 58585858  XXXXXXXXXXXXXXXXXXXX
0000000000000140:   58585858 58585858 58585858 58585858 58585858  XXXXXXXXXXXXXXXXXXXX
0000000000000154:   58585858 58585858 58585858 58585858 58585858  XXXXXXXXXXXXXXXXXXXX
0000000000000168:   58585858 58585858 58585858 58585858 58585858  XXXXXXXXXXXXXXXXXXXX
000000000000017C:   58585858 58585858 58585858 58585858 58585858  XXXXXXXXXXXXXXXXXXXX
0000000000000190:   58585858 58585858 58585858 58585858 58585858  XXXXXXXXXXXXXXXXXXXX
00000000000001A4:   58585858 58585858 58585858 58585858 58585858  XXXXXXXXXXXXXXXXXXXX
00000000000001B8:   58585858 58585858 58585858 58585858 58585858  XXXXXXXXXXXXXXXXXXXX
00000000000001CC:   58585858 58585858 58585858 58585858 58585858  XXXXXXXXXXXXXXXXXXXX
00000000000001E0:   58585858 58585858 58585858 58585858 58585858  XXXXXXXXXXXXXXXXXXXX
00000000000001F4:   58585858 58585858 58585858 58585858 58585858  XXXXXXXXXXXXXXXXXXXX
0000000000000208:   58585858 58585858 58585858 58585858 58585858  XXXXXXXXXXXXXXXXXXXX
000000000000021C:   58585858 58585858 58585858 58585858 58585858  XXXXXXXXXXXXXXXXXXXX
0000000000000230:   58585858 58585858 58585858 58585858 58585858  XXXXXXXXXXXXXXXXXXXX
0000000000000244:   58585858 58585858 58585858 58585858 58585858  XXXXXXXXXXXXXXXXXXXX
0000000000000258:   58585858 58585858 58585858 58585858 58585858  XXXXXXXXXXXXXXXXXXXX
000000000000026C:   58585858 58585858 58585858 58585858 58585858  XXXXXXXXXXXXXXXXXXXX
0000000000000280:   58585858 58585858 58585858 58585858 58585858  XXXXXXXXXXXXXXXXXXXX
0000000000000294:   58585858 58585858 58585858 58585858 58585858  XXXXXXXXXXXXXXXXXXXX
00000000000002A8:   58585858 58585858 58585858 58585858 58585858  XXXXXXXXXXXXXXXXXXXX
00000000000002BC:   58585858 58585858 58585858 58585858 58585858  XXXXXXXXXXXXXXXXXXXX
00000000000002D0:   58585858 58585858 58585858 58585858 58585858  XXXXXXXXXXXXXXXXXXXX
00000000000002E4:   58585858 58585858 58585858 58585858 58585858  XXXXXXXXXXXXXXXXXXXX
00000000000002F8:   58585858 58585858 58585858 58585858 58585858  XXXXXXXXXXXXXXXXXXXX
000000000000030C:   58585858 58585858 58585858 58585858 58585858  XXXXXXXXXXXXXXXXXXXX
0000000000000320:   58585858 58585858 58585858 58585858 58585858  XXXXXXXXXXXXXXXXXXXX
0000000000000334:   58585858 58585858 58585858 58585858 58585858  XXXXXXXXXXXXXXXXXXXX
0000000000000348:   58585858 58585858 58585858 58585858 58585858  XXXXXXXXXXXXXXXXXXXX
000000000000035C:   58585858 58585858 58585858 58585858 58585858  XXXXXXXXXXXXXXXXXXXX
0000000000000370:   58585858 58585858 58585858 58585858 58585858  XXXXXXXXXXXXXXXXXXXX
0000000000000384:   58585858 58585858 58585858 58585858 58585858  XXXXXXXXXXXXXXXXXXXX
0000000000000398:   58585858 58585858 58585858 58585858 58585858  XXXXXXXXXXXXXXXXXXXX
00000000000003AC:   58585858 58585858 58585858 58585858 58585858  XXXXXXXXXXXXXXXXXXXX
00000000000003C0:   58585858 58585858 58585858 58585858 58585858  XXXXXXXXXXXXXXXXXXXX
00000000000003D4:   58585858 58585858 58585858 58585858 58585858  XXXXXXXXXXXXXXXXXXXX
00000000000003E8:   58585858 58585858 58585858 58585858 58585858  XXXXXXXXXXXXXXXXXXXX
00000000000003FC:   58585858 58585858 58585858 58585858 58585858  XXXXXXXXXXXXXXXXXXXX
0000000000000410:   58585858 58585858 58585858 58585858 58585858  XXXXXXXXXXXXXXXXXXXX
0000000000000424:   58585858 58585858 58585858 58585858 58585858  XXXXXXXXXXXXXXXXXXXX
0000000000000438:   58585858 58585858 58585858 58585858 58585858  XXXXXXXXXXXXXXXXXXXX
000000000000044C:   58585858 58585858 58585858 58585858 58585858  XXXXXXXXXXXXXXXXXXXX
0000000000000460:   58585858 58585858 58585858 58585858 58585858  XXXXXXXXXXXXXXXXXXXX
0000000000000474:   58585858 58585858 58585858 58585858 58585858  XXXXXXXXXXXXXXXXXXXX
0000000000000488:   58585858 58585858 58585858 58585858 58585858  XXXXXXXXXXXXXXXXXXXX
000000000000049C:   58585858 58585858 58585858 58585858 58585858  XXXXXXXXXXXXXXXXXXXX
00000000000004B0:   58585858 58585858 58585858 58585858 58585858  XXXXXXXXXXXXXXXXXXXX
00000000000004C4:   58585858 58585858 58585858 58585858 58585858  XXXXXXXXXXXXXXXXXXXX
00000000000004D8:   58585858 58585858 58585858 58585858 58585858  XXXXXXXXXXXXXXXXXXXX
00000000000004EC:   58585858 58585858 58585858 58585858 58585858  XXXXXXXXXXXXXXXXXXXX
0000000000000500:   58585858 58585858 58585858 58585858 58585858  XXXXXXXXXXXXXXXXXXXX
0000000000000514:   58585858 58585858 58585858 58585858 58585858  XXXXXXXXXXXXXXXXXXXX
0000000000000528:   58585858 58585858 58585858 58585858 58585858  XXXXXXXXXXXXXXXXXXXX
000000000000053C:   58585858 58585858 58585858 58585858 58585858  XXXXXXXXXXXXXXXXXXXX
0000000000000550:   58585858 58585858 58585858 58585858 58585858  XXXXXXXXXXXXXXXXXXXX
0000000000000564:   58585858 58585858 58585858 58585858 58585858  XXXXXXXXXXXXXXXXXXXX
0000000000000578:   58585858 58585858 58585858 58585858 58585858  XXXXXXXXXXXXXXXXXXXX
000000000000058C:   58585858 58585858 58585858 58585858 58585858  XXXXXXXXXXXXXXXXXXXX
00000000000005A0:   58585858 58585858 58585858 58585858 58585858  XXXXXXXXXXXXXXXXXXXX
00000000000005B4:   58585858 58585858 58585858 58585858 58585858  XXXXXXXXXXXXXXXXXXXX
00000000000005C8:   58585858 58585858 58585858 58585858 58585858  XXXXXXXXXXXXXXXXXXXX
00000000000005DC:   58585858 58585858 58585858 58585858 58585858  XXXXXXXXXXXXXXXXXXXX
00000000000005F0:   58585858 58585858 58585858 58585858 58585858  XXXXXXXXXXXXXXXXXXXX
0000000000000604:   58585858 58585858 58585858 58585858 58585858  XXXXXXXXXXXXXXXXXXXX
0000000000000618:   58585858 58585858 58585858 58585858 58585858  XXXXXXXXXXXXXXXXXXXX
000000000000062C:   58585858 58585858 58585858 58585858 58585858  XXXXXXXXXXXXXXXXXXXX
0000000000000640:   58585858 58585858 58585858 58585858 58585858  XXXXXXXXXXXXXXXXXXXX
0000000000000654:   58585858 58585858 58585858 58585858 58585858  XXXXXXXXXXXXXXXXXXXX
0000000000000668:   58585858 58585858 58585858 58585858 58585858  XXXXXXXXXXXXXXXXXXXX
000000000000067C:   58585858 58585858 58585858 58585858 58585858  XXXXXXXXXXXXXXXXXXXX
0000000000000690:   58585858 58585858 58585858 58585858 58585858  XXXXXXXXXXXXXXXXXXXX
00000000000006A4:   58585858 58585858 58585858 58585858 58585858  XXXXXXXXXXXXXXXXXXXX
00000000000006B8:   58585858 58585858 58585858 58585858 58585858  XXXXXXXXXXXXXXXXXXXX
00000000000006CC:   58585858 58585858 58585858 58585858 58585858  XXXXXXXXXXXXXXXXXXXX
00000000000006E0:   58585858 58585858 58585858 58585858 58585858  XXXXXXXXXXXXXXXXXXXX
00000000000006F4:   58585858 58585858 58585858 58585858 58585858  XXXXXXXXXXXXXXXXXXXX
0000000000000708:   58585858 58585858 58585858 58585858 58585858  XXXXXXXXXXXXXXXXXXXX
000000000000071C:   58585858 58585858 58585858 58585858 58585858  XXXXXXXXXXXXXXXXXXXX
0000000000000730:   58585858 58585858 58585858 58585858 58585858  XXXXXXXXXXXXXXXXXXXX
0000000000000744:   58585858 58585858 58585858 58585858 58585858  XXXXXXXXXXXXXXXXXXXX
0000000000000758:   58585858 58585858 58585858 58585858 58585858  XXXXXXXXXXXXXXXXXXXX
000000000000076C:   58585858 58585858 58585858 58585858 58585858  XXXXXXXXXXXXXXXXXXXX
0000000000000780:   58585858 58585858 58585858 58585858 58585858  XXXXXXXXXXXXXXXXXXXX
0000000000000794:   58585858 58585858 58585858 58585858 58585858  XXXXXXXXXXXXXXXXXXXX
00000000000007A8:   58585858 58585858 58585858 58585858 58585858  XXXXXXXXXXXXXXXXXXXX
00000000000007BC:   58585858 58585858 58585858 58585858 58585858  XXXXXXXXXXXXXXXXXXXX
00000000000007D0:   58585858 58585858 58585858 58585858 58585858  XXXXXXXXXXXXXXXXXXXX
00000000000007E4:   58040000 0100f507 30303032 2d303030 32        X.....ő.0002-0002

Slot 1 Column 1 Offset 0x4 Length 4 Length (physical) 4

CustomerID = 2                      

Slot 1 Column 2 Offset 0x8 Length 13 Length (physical) 13

FullName = Customer 0002            

Slot 1 Column 3 Offset 0x7ec Length 9 Length (physical) 9

PhoneNumber = 0002-0002             

Slot 1 Column 4 Offset 0x15 Length 2000 Length (physical) 2000

Notes = XXXXXXXXXXXXXXXXXXXXXXXXXXXXXXXXXXXXXXXXXXXXXXXXXXXXXXXXXXXXXXXXXXXXXXXXXXXXXXXXXXXXXXXXXXXXXXXXXXXXXXXXXXXXXXXXXXXXXXXXXXXXXXXXXXXXXXXXXXXXXXXXXXXXXXXXXXXXXXXXXXXXXXXXXXXXXXXXXXX
XXXXXXXXXXXXXXXXXXXXXXXXXXXXXXXXXXXXXXXXXXXXXXXXXXXXXXXXXXXXXXXXXXXXXXXXXXXXXXXXXXXXXXXXXXXXXXXXXXXXXXXXXXXXXXXXXXXXXXXXXXXXXXXXXXXXXXXXXXXXXXXXXXXXXXXXXXXXXXXXXXXXXXXXXXXXXXXXXXXXXXXXXXX
XXXXXXXXXXXXXXXXXXXXXXXXXXXXXXXXXXXXXXXXXXXXXXXXXXXXXXXXXXXXXXXXXXXXXXXXXXXXXXXXXXXXXXXXXXXXXXXXXXXXXXXXXXXXXXXXXXXXXXXXXXXXXXXXXXXXXXXXXXXXXXXXXXXXXXXXXXXXXXXXXXXXXXXXXXXXXXXXXXXXXXXXXXX
XXXXXXXXXXXXXXXXXXXXXXXXXXXXXXXXXXXXXXXXXXXXXXXXXXXXXXXXXXXXXXXXXXXXXXXXXXXXXXXXXXXXXXXXXXXXXXXXXXXXXXXXXXXXXXXXXXXXXXXXXXXXXXXXXXXXXXXXXXXXXXXXXXXXXXXXXXXXXXXXXXXXXXXXXXXXXXXXXXXXXXXXXXX
XXXXXXXXXXXXXXXXXXXXXXXXXXXXXXXXXXXXXXXXXXXXXXXXXXXXXXXXXXXXXXXXXXXXXXXXXXXXXXXXXXXXXXXXXXXXXXXXXXXXXXXXXXXXXXXXXXXXXXXXXXXXXXXXXXXXXXXXXXXXXXXXXXXXXXXXXXXXXXXXXXXXXXXXXXXXXXXXXXXXXXXXXXX
XXXXXXXXXXXXXXXXXXXXXXXXXXXXXXXXXXXXXXXXXXXXXXXXXXXXXXXXXXXXXXXXXXXXXXXXXXXXXXXXXXXXXXXXXXXXXXXXXXXXXXXXXXXXXXXXXXXXXXXXXXXXXXXXXXXXXXXXXXXXXXXXXXXXXXXXXXXXXXXXXXXXXXXXXXXXXXXXXXXXXXXXXXX
XXXXXXXXXXXXXXXXXXXXXXXXXXXXXXXXXXXXXXXXXXXXXXXXXXXXXXXXXXXXXXXXXXXXXXXXXXXXXXXXXXXXXXXXXXXXXXXXXXXXXXXXXXXXXXXXXXXXXXXXXXXXXXXXXXXXXXXXXXXXXXXXXXXXXXXXXXXXXXXXXXXXXXXXXXXXXXXXXXXXXXXXXXX
XXXXXXXXXXXXXXXXXXXXXXXXXXXXXXXXXXXXXXXXXXXXXXXXXXXXXXXXXXXXXXXXXXXXXXXXXXXXXXXXXXXXXXXXXXXXXXXXXXXXXXXXXXXXXXXXXXXXXXXXXXXXXXXXXXXXXXXXXXXXXXXXXXXXXXXXXXXXXXXXXXXXXXXXXXXXXXXXXXXXXXXXXXX
XXXXXXXXXXXXXXXXXXXXXXXXXXXXXXXXXXXXXXXXXXXXXXXXXXXXXXXXXXXXXXXXXXXXXXXXXXXXXXXXXXXXXXXXXXXXXXXXXXXXXXXXXXXXXXXXXXXXXXXXXXXXXXXXXXXXXXXXXXXXXXXXXXXXXXXXXXXXXXXXXXXXXXXXXXXXXXXXXXXXXXXXXXX
XXXXXXXXXXXXXXXXXXXXXXXXXXXXXXXXXXXXXXXXXXXXXXXXXXXXXXXXXXXXXXXXXXXXXXXXXXXXXXXXXXXXXXXXXXXXXXXXXXXXXXXXXXXXXXXXXXXXXXXXXXXXXXXXXXXXXXXXXXXXXXXXXXXXXXXXXXXXXXXXXXXXXXXXXXXXXXXXXXXXXXXXXXX
XXXXXXXXXXXXXXXXXXXXXXXXXXXXXXXXXXXXXXXXXXXXXXXXXXXXXXXXXXXXXXXXXXXXXXXXXXXXXXXXXXXXXXXXXXXXXXXXXXXXXXXXXXXXXXXXXXXXXXXXXXXXXXXXXXXXXXXXXX

Slot 1 Offset 0x0 Length 0 Length (physical) 0

KeyHashValue = (61a06abd401c)       
Slot 2 Offset 0x104a Length 2037

Record Type = PRIMARY_RECORD        Record Attributes =  NULL_BITMAP VARIABLE_COLUMNS
Record Size = 2037                  
Memory Dump @0x000000841CD7104A

0000000000000000:   3000e507 03000000 43757374 6f6d6572 20303030  0.ĺ.....Customer 000
0000000000000014:   33585858 58585858 58585858 58585858 58585858  3XXXXXXXXXXXXXXXXXXX
0000000000000028:   58585858 58585858 58585858 58585858 58585858  XXXXXXXXXXXXXXXXXXXX
000000000000003C:   58585858 58585858 58585858 58585858 58585858  XXXXXXXXXXXXXXXXXXXX
0000000000000050:   58585858 58585858 58585858 58585858 58585858  XXXXXXXXXXXXXXXXXXXX
0000000000000064:   58585858 58585858 58585858 58585858 58585858  XXXXXXXXXXXXXXXXXXXX
0000000000000078:   58585858 58585858 58585858 58585858 58585858  XXXXXXXXXXXXXXXXXXXX
000000000000008C:   58585858 58585858 58585858 58585858 58585858  XXXXXXXXXXXXXXXXXXXX
00000000000000A0:   58585858 58585858 58585858 58585858 58585858  XXXXXXXXXXXXXXXXXXXX
00000000000000B4:   58585858 58585858 58585858 58585858 58585858  XXXXXXXXXXXXXXXXXXXX
00000000000000C8:   58585858 58585858 58585858 58585858 58585858  XXXXXXXXXXXXXXXXXXXX
00000000000000DC:   58585858 58585858 58585858 58585858 58585858  XXXXXXXXXXXXXXXXXXXX
00000000000000F0:   58585858 58585858 58585858 58585858 58585858  XXXXXXXXXXXXXXXXXXXX
0000000000000104:   58585858 58585858 58585858 58585858 58585858  XXXXXXXXXXXXXXXXXXXX
0000000000000118:   58585858 58585858 58585858 58585858 58585858  XXXXXXXXXXXXXXXXXXXX
000000000000012C:   58585858 58585858 58585858 58585858 58585858  XXXXXXXXXXXXXXXXXXXX
0000000000000140:   58585858 58585858 58585858 58585858 58585858  XXXXXXXXXXXXXXXXXXXX
0000000000000154:   58585858 58585858 58585858 58585858 58585858  XXXXXXXXXXXXXXXXXXXX
0000000000000168:   58585858 58585858 58585858 58585858 58585858  XXXXXXXXXXXXXXXXXXXX
000000000000017C:   58585858 58585858 58585858 58585858 58585858  XXXXXXXXXXXXXXXXXXXX
0000000000000190:   58585858 58585858 58585858 58585858 58585858  XXXXXXXXXXXXXXXXXXXX
00000000000001A4:   58585858 58585858 58585858 58585858 58585858  XXXXXXXXXXXXXXXXXXXX
00000000000001B8:   58585858 58585858 58585858 58585858 58585858  XXXXXXXXXXXXXXXXXXXX
00000000000001CC:   58585858 58585858 58585858 58585858 58585858  XXXXXXXXXXXXXXXXXXXX
00000000000001E0:   58585858 58585858 58585858 58585858 58585858  XXXXXXXXXXXXXXXXXXXX
00000000000001F4:   58585858 58585858 58585858 58585858 58585858  XXXXXXXXXXXXXXXXXXXX
0000000000000208:   58585858 58585858 58585858 58585858 58585858  XXXXXXXXXXXXXXXXXXXX
000000000000021C:   58585858 58585858 58585858 58585858 58585858  XXXXXXXXXXXXXXXXXXXX
0000000000000230:   58585858 58585858 58585858 58585858 58585858  XXXXXXXXXXXXXXXXXXXX
0000000000000244:   58585858 58585858 58585858 58585858 58585858  XXXXXXXXXXXXXXXXXXXX
0000000000000258:   58585858 58585858 58585858 58585858 58585858  XXXXXXXXXXXXXXXXXXXX
000000000000026C:   58585858 58585858 58585858 58585858 58585858  XXXXXXXXXXXXXXXXXXXX
0000000000000280:   58585858 58585858 58585858 58585858 58585858  XXXXXXXXXXXXXXXXXXXX
0000000000000294:   58585858 58585858 58585858 58585858 58585858  XXXXXXXXXXXXXXXXXXXX
00000000000002A8:   58585858 58585858 58585858 58585858 58585858  XXXXXXXXXXXXXXXXXXXX
00000000000002BC:   58585858 58585858 58585858 58585858 58585858  XXXXXXXXXXXXXXXXXXXX
00000000000002D0:   58585858 58585858 58585858 58585858 58585858  XXXXXXXXXXXXXXXXXXXX
00000000000002E4:   58585858 58585858 58585858 58585858 58585858  XXXXXXXXXXXXXXXXXXXX
00000000000002F8:   58585858 58585858 58585858 58585858 58585858  XXXXXXXXXXXXXXXXXXXX
000000000000030C:   58585858 58585858 58585858 58585858 58585858  XXXXXXXXXXXXXXXXXXXX
0000000000000320:   58585858 58585858 58585858 58585858 58585858  XXXXXXXXXXXXXXXXXXXX
0000000000000334:   58585858 58585858 58585858 58585858 58585858  XXXXXXXXXXXXXXXXXXXX
0000000000000348:   58585858 58585858 58585858 58585858 58585858  XXXXXXXXXXXXXXXXXXXX
000000000000035C:   58585858 58585858 58585858 58585858 58585858  XXXXXXXXXXXXXXXXXXXX
0000000000000370:   58585858 58585858 58585858 58585858 58585858  XXXXXXXXXXXXXXXXXXXX
0000000000000384:   58585858 58585858 58585858 58585858 58585858  XXXXXXXXXXXXXXXXXXXX
0000000000000398:   58585858 58585858 58585858 58585858 58585858  XXXXXXXXXXXXXXXXXXXX
00000000000003AC:   58585858 58585858 58585858 58585858 58585858  XXXXXXXXXXXXXXXXXXXX
00000000000003C0:   58585858 58585858 58585858 58585858 58585858  XXXXXXXXXXXXXXXXXXXX
00000000000003D4:   58585858 58585858 58585858 58585858 58585858  XXXXXXXXXXXXXXXXXXXX
00000000000003E8:   58585858 58585858 58585858 58585858 58585858  XXXXXXXXXXXXXXXXXXXX
00000000000003FC:   58585858 58585858 58585858 58585858 58585858  XXXXXXXXXXXXXXXXXXXX
0000000000000410:   58585858 58585858 58585858 58585858 58585858  XXXXXXXXXXXXXXXXXXXX
0000000000000424:   58585858 58585858 58585858 58585858 58585858  XXXXXXXXXXXXXXXXXXXX
0000000000000438:   58585858 58585858 58585858 58585858 58585858  XXXXXXXXXXXXXXXXXXXX
000000000000044C:   58585858 58585858 58585858 58585858 58585858  XXXXXXXXXXXXXXXXXXXX
0000000000000460:   58585858 58585858 58585858 58585858 58585858  XXXXXXXXXXXXXXXXXXXX
0000000000000474:   58585858 58585858 58585858 58585858 58585858  XXXXXXXXXXXXXXXXXXXX
0000000000000488:   58585858 58585858 58585858 58585858 58585858  XXXXXXXXXXXXXXXXXXXX
000000000000049C:   58585858 58585858 58585858 58585858 58585858  XXXXXXXXXXXXXXXXXXXX
00000000000004B0:   58585858 58585858 58585858 58585858 58585858  XXXXXXXXXXXXXXXXXXXX
00000000000004C4:   58585858 58585858 58585858 58585858 58585858  XXXXXXXXXXXXXXXXXXXX
00000000000004D8:   58585858 58585858 58585858 58585858 58585858  XXXXXXXXXXXXXXXXXXXX
00000000000004EC:   58585858 58585858 58585858 58585858 58585858  XXXXXXXXXXXXXXXXXXXX
0000000000000500:   58585858 58585858 58585858 58585858 58585858  XXXXXXXXXXXXXXXXXXXX
0000000000000514:   58585858 58585858 58585858 58585858 58585858  XXXXXXXXXXXXXXXXXXXX
0000000000000528:   58585858 58585858 58585858 58585858 58585858  XXXXXXXXXXXXXXXXXXXX
000000000000053C:   58585858 58585858 58585858 58585858 58585858  XXXXXXXXXXXXXXXXXXXX
0000000000000550:   58585858 58585858 58585858 58585858 58585858  XXXXXXXXXXXXXXXXXXXX
0000000000000564:   58585858 58585858 58585858 58585858 58585858  XXXXXXXXXXXXXXXXXXXX
0000000000000578:   58585858 58585858 58585858 58585858 58585858  XXXXXXXXXXXXXXXXXXXX
000000000000058C:   58585858 58585858 58585858 58585858 58585858  XXXXXXXXXXXXXXXXXXXX
00000000000005A0:   58585858 58585858 58585858 58585858 58585858  XXXXXXXXXXXXXXXXXXXX
00000000000005B4:   58585858 58585858 58585858 58585858 58585858  XXXXXXXXXXXXXXXXXXXX
00000000000005C8:   58585858 58585858 58585858 58585858 58585858  XXXXXXXXXXXXXXXXXXXX
00000000000005DC:   58585858 58585858 58585858 58585858 58585858  XXXXXXXXXXXXXXXXXXXX
00000000000005F0:   58585858 58585858 58585858 58585858 58585858  XXXXXXXXXXXXXXXXXXXX
0000000000000604:   58585858 58585858 58585858 58585858 58585858  XXXXXXXXXXXXXXXXXXXX
0000000000000618:   58585858 58585858 58585858 58585858 58585858  XXXXXXXXXXXXXXXXXXXX
000000000000062C:   58585858 58585858 58585858 58585858 58585858  XXXXXXXXXXXXXXXXXXXX
0000000000000640:   58585858 58585858 58585858 58585858 58585858  XXXXXXXXXXXXXXXXXXXX
0000000000000654:   58585858 58585858 58585858 58585858 58585858  XXXXXXXXXXXXXXXXXXXX
0000000000000668:   58585858 58585858 58585858 58585858 58585858  XXXXXXXXXXXXXXXXXXXX
000000000000067C:   58585858 58585858 58585858 58585858 58585858  XXXXXXXXXXXXXXXXXXXX
0000000000000690:   58585858 58585858 58585858 58585858 58585858  XXXXXXXXXXXXXXXXXXXX
00000000000006A4:   58585858 58585858 58585858 58585858 58585858  XXXXXXXXXXXXXXXXXXXX
00000000000006B8:   58585858 58585858 58585858 58585858 58585858  XXXXXXXXXXXXXXXXXXXX
00000000000006CC:   58585858 58585858 58585858 58585858 58585858  XXXXXXXXXXXXXXXXXXXX
00000000000006E0:   58585858 58585858 58585858 58585858 58585858  XXXXXXXXXXXXXXXXXXXX
00000000000006F4:   58585858 58585858 58585858 58585858 58585858  XXXXXXXXXXXXXXXXXXXX
0000000000000708:   58585858 58585858 58585858 58585858 58585858  XXXXXXXXXXXXXXXXXXXX
000000000000071C:   58585858 58585858 58585858 58585858 58585858  XXXXXXXXXXXXXXXXXXXX
0000000000000730:   58585858 58585858 58585858 58585858 58585858  XXXXXXXXXXXXXXXXXXXX
0000000000000744:   58585858 58585858 58585858 58585858 58585858  XXXXXXXXXXXXXXXXXXXX
0000000000000758:   58585858 58585858 58585858 58585858 58585858  XXXXXXXXXXXXXXXXXXXX
000000000000076C:   58585858 58585858 58585858 58585858 58585858  XXXXXXXXXXXXXXXXXXXX
0000000000000780:   58585858 58585858 58585858 58585858 58585858  XXXXXXXXXXXXXXXXXXXX
0000000000000794:   58585858 58585858 58585858 58585858 58585858  XXXXXXXXXXXXXXXXXXXX
00000000000007A8:   58585858 58585858 58585858 58585858 58585858  XXXXXXXXXXXXXXXXXXXX
00000000000007BC:   58585858 58585858 58585858 58585858 58585858  XXXXXXXXXXXXXXXXXXXX
00000000000007D0:   58585858 58585858 58585858 58585858 58585858  XXXXXXXXXXXXXXXXXXXX
00000000000007E4:   58040000 0100f507 30303033 2d303030 33        X.....ő.0003-0003

Slot 2 Column 1 Offset 0x4 Length 4 Length (physical) 4

CustomerID = 3                      

Slot 2 Column 2 Offset 0x8 Length 13 Length (physical) 13

FullName = Customer 0003            

Slot 2 Column 3 Offset 0x7ec Length 9 Length (physical) 9

PhoneNumber = 0003-0003             

Slot 2 Column 4 Offset 0x15 Length 2000 Length (physical) 2000

Notes = XXXXXXXXXXXXXXXXXXXXXXXXXXXXXXXXXXXXXXXXXXXXXXXXXXXXXXXXXXXXXXXXXXXXXXXXXXXXXXXXXXXXXXXXXXXXXXXXXXXXXXXXXXXXXXXXXXXXXXXXXXXXXXXXXXXXXXXXXXXXXXXXXXXXXXXXXXXXXXXXXXXXXXXXXXXXXXXXXXX
XXXXXXXXXXXXXXXXXXXXXXXXXXXXXXXXXXXXXXXXXXXXXXXXXXXXXXXXXXXXXXXXXXXXXXXXXXXXXXXXXXXXXXXXXXXXXXXXXXXXXXXXXXXXXXXXXXXXXXXXXXXXXXXXXXXXXXXXXXXXXXXXXXXXXXXXXXXXXXXXXXXXXXXXXXXXXXXXXXXXXXXXXXX
XXXXXXXXXXXXXXXXXXXXXXXXXXXXXXXXXXXXXXXXXXXXXXXXXXXXXXXXXXXXXXXXXXXXXXXXXXXXXXXXXXXXXXXXXXXXXXXXXXXXXXXXXXXXXXXXXXXXXXXXXXXXXXXXXXXXXXXXXXXXXXXXXXXXXXXXXXXXXXXXXXXXXXXXXXXXXXXXXXXXXXXXXXX
XXXXXXXXXXXXXXXXXXXXXXXXXXXXXXXXXXXXXXXXXXXXXXXXXXXXXXXXXXXXXXXXXXXXXXXXXXXXXXXXXXXXXXXXXXXXXXXXXXXXXXXXXXXXXXXXXXXXXXXXXXXXXXXXXXXXXXXXXXXXXXXXXXXXXXXXXXXXXXXXXXXXXXXXXXXXXXXXXXXXXXXXXXX
XXXXXXXXXXXXXXXXXXXXXXXXXXXXXXXXXXXXXXXXXXXXXXXXXXXXXXXXXXXXXXXXXXXXXXXXXXXXXXXXXXXXXXXXXXXXXXXXXXXXXXXXXXXXXXXXXXXXXXXXXXXXXXXXXXXXXXXXXXXXXXXXXXXXXXXXXXXXXXXXXXXXXXXXXXXXXXXXXXXXXXXXXXX
XXXXXXXXXXXXXXXXXXXXXXXXXXXXXXXXXXXXXXXXXXXXXXXXXXXXXXXXXXXXXXXXXXXXXXXXXXXXXXXXXXXXXXXXXXXXXXXXXXXXXXXXXXXXXXXXXXXXXXXXXXXXXXXXXXXXXXXXXXXXXXXXXXXXXXXXXXXXXXXXXXXXXXXXXXXXXXXXXXXXXXXXXXX
XXXXXXXXXXXXXXXXXXXXXXXXXXXXXXXXXXXXXXXXXXXXXXXXXXXXXXXXXXXXXXXXXXXXXXXXXXXXXXXXXXXXXXXXXXXXXXXXXXXXXXXXXXXXXXXXXXXXXXXXXXXXXXXXXXXXXXXXXXXXXXXXXXXXXXXXXXXXXXXXXXXXXXXXXXXXXXXXXXXXXXXXXXX
XXXXXXXXXXXXXXXXXXXXXXXXXXXXXXXXXXXXXXXXXXXXXXXXXXXXXXXXXXXXXXXXXXXXXXXXXXXXXXXXXXXXXXXXXXXXXXXXXXXXXXXXXXXXXXXXXXXXXXXXXXXXXXXXXXXXXXXXXXXXXXXXXXXXXXXXXXXXXXXXXXXXXXXXXXXXXXXXXXXXXXXXXXX
XXXXXXXXXXXXXXXXXXXXXXXXXXXXXXXXXXXXXXXXXXXXXXXXXXXXXXXXXXXXXXXXXXXXXXXXXXXXXXXXXXXXXXXXXXXXXXXXXXXXXXXXXXXXXXXXXXXXXXXXXXXXXXXXXXXXXXXXXXXXXXXXXXXXXXXXXXXXXXXXXXXXXXXXXXXXXXXXXXXXXXXXXXX
XXXXXXXXXXXXXXXXXXXXXXXXXXXXXXXXXXXXXXXXXXXXXXXXXXXXXXXXXXXXXXXXXXXXXXXXXXXXXXXXXXXXXXXXXXXXXXXXXXXXXXXXXXXXXXXXXXXXXXXXXXXXXXXXXXXXXXXXXXXXXXXXXXXXXXXXXXXXXXXXXXXXXXXXXXXXXXXXXXXXXXXXXXX
XXXXXXXXXXXXXXXXXXXXXXXXXXXXXXXXXXXXXXXXXXXXXXXXXXXXXXXXXXXXXXXXXXXXXXXXXXXXXXXXXXXXXXXXXXXXXXXXXXXXXXXXXXXXXXXXXXXXXXXXXXXXXXXXXXXXXXXXXX

Slot 2 Offset 0x0 Length 0 Length (physical) 0

KeyHashValue = (98ec012aa510)       


DBCC execution completed. If DBCC printed error messages, contact your system administrator.
DBCC PAGE ('ExamplesDB_MultiplePageRestore', 1, 282, 3);

PAGE: (1:282)


BUFFER:


BUF @0x000001F7892E6900

bpage = 0x000001F61597E000          bPmmpage = 0x0000000000000000       bsort_r_nextbP = 0x000001F7892E6850
bsort_r_prevbP = 0x0000000000000000 bhash = 0x0000000000000000          bpageno = (1:282)
bpart = 3                           bstat = 0x109                       breferences = 0
berrcode = 0                        bUse1 = 26469                       bstat2 = 0x0
blog = 0xab21cc8a                   bsampleCount = 0                    bIoCount = 0
resPoolId = 0                       bcputicks = 0                       bReadMicroSec = 775
bDirtyPendingCount = 0              bDirtyContext = 0x0000000000000000  bDbPageBroker = 0x0000000000000000
bdbid = 23                          bpru = 0x000001F604300040           

PAGE HEADER:


Page @0x000001F61597E000

m_pageId = (1:282)                  m_headerVersion = 1                 m_type = 1
m_typeFlagBits = 0x0                m_level = 0                         m_flagBits = 0x200
m_objId (AllocUnitId.idObj) = 222   m_indexId (AllocUnitId.idInd) = 256 Metadata: AllocUnitId = 72057594052476928
Metadata: PartitionId = 72057594045726720                                Metadata: IndexId = 1
Metadata: ObjectId = 901578250      m_prevPage = (1:280)                m_nextPage = (1:283)
pminlen = 2021                      m_slotCnt = 3                       m_freeCnt = 1979
m_freeData = 6207                   m_reservedCnt = 0                   m_lsn = (39:312:13)
m_xactReserved = 0                  m_xdesId = (0:0)                    m_ghostRecCnt = 0
m_tornBits = 1730763889             DB Frag ID = 1                      

Allocation Status

GAM (1:2) = ALLOCATED               SGAM (1:3) = NOT ALLOCATED          PFS (1:1) = 0x40 ALLOCATED   0_PCT_FULL
DIFF (1:6) = NOT CHANGED            ML (1:7) = NOT MIN_LOGGED           

Slot 0 Offset 0x60 Length 2037

Record Type = PRIMARY_RECORD        Record Attributes =  NULL_BITMAP VARIABLE_COLUMNS
Record Size = 2037                  
Memory Dump @0x000000841CD70060

0000000000000000:   3000e507 04000000 43757374 6f6d6572 20303030  0.ĺ.....Customer 000
0000000000000014:   34585858 58585858 58585858 58585858 58585858  4XXXXXXXXXXXXXXXXXXX
0000000000000028:   58585858 58585858 58585858 58585858 58585858  XXXXXXXXXXXXXXXXXXXX
000000000000003C:   58585858 58585858 58585858 58585858 58585858  XXXXXXXXXXXXXXXXXXXX
0000000000000050:   58585858 58585858 58585858 58585858 58585858  XXXXXXXXXXXXXXXXXXXX
0000000000000064:   58585858 58585858 58585858 58585858 58585858  XXXXXXXXXXXXXXXXXXXX
0000000000000078:   58585858 58585858 58585858 58585858 58585858  XXXXXXXXXXXXXXXXXXXX
000000000000008C:   58585858 58585858 58585858 58585858 58585858  XXXXXXXXXXXXXXXXXXXX
00000000000000A0:   58585858 58585858 58585858 58585858 58585858  XXXXXXXXXXXXXXXXXXXX
00000000000000B4:   58585858 58585858 58585858 58585858 58585858  XXXXXXXXXXXXXXXXXXXX
00000000000000C8:   58585858 58585858 58585858 58585858 58585858  XXXXXXXXXXXXXXXXXXXX
00000000000000DC:   58585858 58585858 58585858 58585858 58585858  XXXXXXXXXXXXXXXXXXXX
00000000000000F0:   58585858 58585858 58585858 58585858 58585858  XXXXXXXXXXXXXXXXXXXX
0000000000000104:   58585858 58585858 58585858 58585858 58585858  XXXXXXXXXXXXXXXXXXXX
0000000000000118:   58585858 58585858 58585858 58585858 58585858  XXXXXXXXXXXXXXXXXXXX
000000000000012C:   58585858 58585858 58585858 58585858 58585858  XXXXXXXXXXXXXXXXXXXX
0000000000000140:   58585858 58585858 58585858 58585858 58585858  XXXXXXXXXXXXXXXXXXXX
0000000000000154:   58585858 58585858 58585858 58585858 58585858  XXXXXXXXXXXXXXXXXXXX
0000000000000168:   58585858 58585858 58585858 58585858 58585858  XXXXXXXXXXXXXXXXXXXX
000000000000017C:   58585858 58585858 58585858 58585858 58585858  XXXXXXXXXXXXXXXXXXXX
0000000000000190:   58585858 58585858 58585858 58585858 58585858  XXXXXXXXXXXXXXXXXXXX
00000000000001A4:   58585858 58585858 58585858 58585858 58585858  XXXXXXXXXXXXXXXXXXXX
00000000000001B8:   58585858 58585858 58585858 58585858 58585858  XXXXXXXXXXXXXXXXXXXX
00000000000001CC:   58585858 58585858 58585858 58585858 58585858  XXXXXXXXXXXXXXXXXXXX
00000000000001E0:   58585858 58585858 58585858 58585858 58585858  XXXXXXXXXXXXXXXXXXXX
00000000000001F4:   58585858 58585858 58585858 58585858 58585858  XXXXXXXXXXXXXXXXXXXX
0000000000000208:   58585858 58585858 58585858 58585858 58585858  XXXXXXXXXXXXXXXXXXXX
000000000000021C:   58585858 58585858 58585858 58585858 58585858  XXXXXXXXXXXXXXXXXXXX
0000000000000230:   58585858 58585858 58585858 58585858 58585858  XXXXXXXXXXXXXXXXXXXX
0000000000000244:   58585858 58585858 58585858 58585858 58585858  XXXXXXXXXXXXXXXXXXXX
0000000000000258:   58585858 58585858 58585858 58585858 58585858  XXXXXXXXXXXXXXXXXXXX
000000000000026C:   58585858 58585858 58585858 58585858 58585858  XXXXXXXXXXXXXXXXXXXX
0000000000000280:   58585858 58585858 58585858 58585858 58585858  XXXXXXXXXXXXXXXXXXXX
0000000000000294:   58585858 58585858 58585858 58585858 58585858  XXXXXXXXXXXXXXXXXXXX
00000000000002A8:   58585858 58585858 58585858 58585858 58585858  XXXXXXXXXXXXXXXXXXXX
00000000000002BC:   58585858 58585858 58585858 58585858 58585858  XXXXXXXXXXXXXXXXXXXX
00000000000002D0:   58585858 58585858 58585858 58585858 58585858  XXXXXXXXXXXXXXXXXXXX
00000000000002E4:   58585858 58585858 58585858 58585858 58585858  XXXXXXXXXXXXXXXXXXXX
00000000000002F8:   58585858 58585858 58585858 58585858 58585858  XXXXXXXXXXXXXXXXXXXX
000000000000030C:   58585858 58585858 58585858 58585858 58585858  XXXXXXXXXXXXXXXXXXXX
0000000000000320:   58585858 58585858 58585858 58585858 58585858  XXXXXXXXXXXXXXXXXXXX
0000000000000334:   58585858 58585858 58585858 58585858 58585858  XXXXXXXXXXXXXXXXXXXX
0000000000000348:   58585858 58585858 58585858 58585858 58585858  XXXXXXXXXXXXXXXXXXXX
000000000000035C:   58585858 58585858 58585858 58585858 58585858  XXXXXXXXXXXXXXXXXXXX
0000000000000370:   58585858 58585858 58585858 58585858 58585858  XXXXXXXXXXXXXXXXXXXX
0000000000000384:   58585858 58585858 58585858 58585858 58585858  XXXXXXXXXXXXXXXXXXXX
0000000000000398:   58585858 58585858 58585858 58585858 58585858  XXXXXXXXXXXXXXXXXXXX
00000000000003AC:   58585858 58585858 58585858 58585858 58585858  XXXXXXXXXXXXXXXXXXXX
00000000000003C0:   58585858 58585858 58585858 58585858 58585858  XXXXXXXXXXXXXXXXXXXX
00000000000003D4:   58585858 58585858 58585858 58585858 58585858  XXXXXXXXXXXXXXXXXXXX
00000000000003E8:   58585858 58585858 58585858 58585858 58585858  XXXXXXXXXXXXXXXXXXXX
00000000000003FC:   58585858 58585858 58585858 58585858 58585858  XXXXXXXXXXXXXXXXXXXX
0000000000000410:   58585858 58585858 58585858 58585858 58585858  XXXXXXXXXXXXXXXXXXXX
0000000000000424:   58585858 58585858 58585858 58585858 58585858  XXXXXXXXXXXXXXXXXXXX
0000000000000438:   58585858 58585858 58585858 58585858 58585858  XXXXXXXXXXXXXXXXXXXX
000000000000044C:   58585858 58585858 58585858 58585858 58585858  XXXXXXXXXXXXXXXXXXXX
0000000000000460:   58585858 58585858 58585858 58585858 58585858  XXXXXXXXXXXXXXXXXXXX
0000000000000474:   58585858 58585858 58585858 58585858 58585858  XXXXXXXXXXXXXXXXXXXX
0000000000000488:   58585858 58585858 58585858 58585858 58585858  XXXXXXXXXXXXXXXXXXXX
000000000000049C:   58585858 58585858 58585858 58585858 58585858  XXXXXXXXXXXXXXXXXXXX
00000000000004B0:   58585858 58585858 58585858 58585858 58585858  XXXXXXXXXXXXXXXXXXXX
00000000000004C4:   58585858 58585858 58585858 58585858 58585858  XXXXXXXXXXXXXXXXXXXX
00000000000004D8:   58585858 58585858 58585858 58585858 58585858  XXXXXXXXXXXXXXXXXXXX
00000000000004EC:   58585858 58585858 58585858 58585858 58585858  XXXXXXXXXXXXXXXXXXXX
0000000000000500:   58585858 58585858 58585858 58585858 58585858  XXXXXXXXXXXXXXXXXXXX
0000000000000514:   58585858 58585858 58585858 58585858 58585858  XXXXXXXXXXXXXXXXXXXX
0000000000000528:   58585858 58585858 58585858 58585858 58585858  XXXXXXXXXXXXXXXXXXXX
000000000000053C:   58585858 58585858 58585858 58585858 58585858  XXXXXXXXXXXXXXXXXXXX
0000000000000550:   58585858 58585858 58585858 58585858 58585858  XXXXXXXXXXXXXXXXXXXX
0000000000000564:   58585858 58585858 58585858 58585858 58585858  XXXXXXXXXXXXXXXXXXXX
0000000000000578:   58585858 58585858 58585858 58585858 58585858  XXXXXXXXXXXXXXXXXXXX
000000000000058C:   58585858 58585858 58585858 58585858 58585858  XXXXXXXXXXXXXXXXXXXX
00000000000005A0:   58585858 58585858 58585858 58585858 58585858  XXXXXXXXXXXXXXXXXXXX
00000000000005B4:   58585858 58585858 58585858 58585858 58585858  XXXXXXXXXXXXXXXXXXXX
00000000000005C8:   58585858 58585858 58585858 58585858 58585858  XXXXXXXXXXXXXXXXXXXX
00000000000005DC:   58585858 58585858 58585858 58585858 58585858  XXXXXXXXXXXXXXXXXXXX
00000000000005F0:   58585858 58585858 58585858 58585858 58585858  XXXXXXXXXXXXXXXXXXXX
0000000000000604:   58585858 58585858 58585858 58585858 58585858  XXXXXXXXXXXXXXXXXXXX
0000000000000618:   58585858 58585858 58585858 58585858 58585858  XXXXXXXXXXXXXXXXXXXX
000000000000062C:   58585858 58585858 58585858 58585858 58585858  XXXXXXXXXXXXXXXXXXXX
0000000000000640:   58585858 58585858 58585858 58585858 58585858  XXXXXXXXXXXXXXXXXXXX
0000000000000654:   58585858 58585858 58585858 58585858 58585858  XXXXXXXXXXXXXXXXXXXX
0000000000000668:   58585858 58585858 58585858 58585858 58585858  XXXXXXXXXXXXXXXXXXXX
000000000000067C:   58585858 58585858 58585858 58585858 58585858  XXXXXXXXXXXXXXXXXXXX
0000000000000690:   58585858 58585858 58585858 58585858 58585858  XXXXXXXXXXXXXXXXXXXX
00000000000006A4:   58585858 58585858 58585858 58585858 58585858  XXXXXXXXXXXXXXXXXXXX
00000000000006B8:   58585858 58585858 58585858 58585858 58585858  XXXXXXXXXXXXXXXXXXXX
00000000000006CC:   58585858 58585858 58585858 58585858 58585858  XXXXXXXXXXXXXXXXXXXX
00000000000006E0:   58585858 58585858 58585858 58585858 58585858  XXXXXXXXXXXXXXXXXXXX
00000000000006F4:   58585858 58585858 58585858 58585858 58585858  XXXXXXXXXXXXXXXXXXXX
0000000000000708:   58585858 58585858 58585858 58585858 58585858  XXXXXXXXXXXXXXXXXXXX
000000000000071C:   58585858 58585858 58585858 58585858 58585858  XXXXXXXXXXXXXXXXXXXX
0000000000000730:   58585858 58585858 58585858 58585858 58585858  XXXXXXXXXXXXXXXXXXXX
0000000000000744:   58585858 58585858 58585858 58585858 58585858  XXXXXXXXXXXXXXXXXXXX
0000000000000758:   58585858 58585858 58585858 58585858 58585858  XXXXXXXXXXXXXXXXXXXX
000000000000076C:   58585858 58585858 58585858 58585858 58585858  XXXXXXXXXXXXXXXXXXXX
0000000000000780:   58585858 58585858 58585858 58585858 58585858  XXXXXXXXXXXXXXXXXXXX
0000000000000794:   58585858 58585858 58585858 58585858 58585858  XXXXXXXXXXXXXXXXXXXX
00000000000007A8:   58585858 58585858 58585858 58585858 58585858  XXXXXXXXXXXXXXXXXXXX
00000000000007BC:   58585858 58585858 58585858 58585858 58585858  XXXXXXXXXXXXXXXXXXXX
00000000000007D0:   58585858 58585858 58585858 58585858 58585858  XXXXXXXXXXXXXXXXXXXX
00000000000007E4:   58040000 0100f507 30303034 2d303030 34        X.....ő.0004-0004

Slot 0 Column 1 Offset 0x4 Length 4 Length (physical) 4

CustomerID = 4                      

Slot 0 Column 2 Offset 0x8 Length 13 Length (physical) 13

FullName = Customer 0004            

Slot 0 Column 3 Offset 0x7ec Length 9 Length (physical) 9

PhoneNumber = 0004-0004             

Slot 0 Column 4 Offset 0x15 Length 2000 Length (physical) 2000

Notes = XXXXXXXXXXXXXXXXXXXXXXXXXXXXXXXXXXXXXXXXXXXXXXXXXXXXXXXXXXXXXXXXXXXXXXXXXXXXXXXXXXXXXXXXXXXXXXXXXXXXXXXXXXXXXXXXXXXXXXXXXXXXXXXXXXXXXXXXXXXXXXXXXXXXXXXXXXXXXXXXXXXXXXXXXXXXXXXXXXX
XXXXXXXXXXXXXXXXXXXXXXXXXXXXXXXXXXXXXXXXXXXXXXXXXXXXXXXXXXXXXXXXXXXXXXXXXXXXXXXXXXXXXXXXXXXXXXXXXXXXXXXXXXXXXXXXXXXXXXXXXXXXXXXXXXXXXXXXXXXXXXXXXXXXXXXXXXXXXXXXXXXXXXXXXXXXXXXXXXXXXXXXXXX
XXXXXXXXXXXXXXXXXXXXXXXXXXXXXXXXXXXXXXXXXXXXXXXXXXXXXXXXXXXXXXXXXXXXXXXXXXXXXXXXXXXXXXXXXXXXXXXXXXXXXXXXXXXXXXXXXXXXXXXXXXXXXXXXXXXXXXXXXXXXXXXXXXXXXXXXXXXXXXXXXXXXXXXXXXXXXXXXXXXXXXXXXXX
XXXXXXXXXXXXXXXXXXXXXXXXXXXXXXXXXXXXXXXXXXXXXXXXXXXXXXXXXXXXXXXXXXXXXXXXXXXXXXXXXXXXXXXXXXXXXXXXXXXXXXXXXXXXXXXXXXXXXXXXXXXXXXXXXXXXXXXXXXXXXXXXXXXXXXXXXXXXXXXXXXXXXXXXXXXXXXXXXXXXXXXXXXX
XXXXXXXXXXXXXXXXXXXXXXXXXXXXXXXXXXXXXXXXXXXXXXXXXXXXXXXXXXXXXXXXXXXXXXXXXXXXXXXXXXXXXXXXXXXXXXXXXXXXXXXXXXXXXXXXXXXXXXXXXXXXXXXXXXXXXXXXXXXXXXXXXXXXXXXXXXXXXXXXXXXXXXXXXXXXXXXXXXXXXXXXXXX
XXXXXXXXXXXXXXXXXXXXXXXXXXXXXXXXXXXXXXXXXXXXXXXXXXXXXXXXXXXXXXXXXXXXXXXXXXXXXXXXXXXXXXXXXXXXXXXXXXXXXXXXXXXXXXXXXXXXXXXXXXXXXXXXXXXXXXXXXXXXXXXXXXXXXXXXXXXXXXXXXXXXXXXXXXXXXXXXXXXXXXXXXXX
XXXXXXXXXXXXXXXXXXXXXXXXXXXXXXXXXXXXXXXXXXXXXXXXXXXXXXXXXXXXXXXXXXXXXXXXXXXXXXXXXXXXXXXXXXXXXXXXXXXXXXXXXXXXXXXXXXXXXXXXXXXXXXXXXXXXXXXXXXXXXXXXXXXXXXXXXXXXXXXXXXXXXXXXXXXXXXXXXXXXXXXXXXX
XXXXXXXXXXXXXXXXXXXXXXXXXXXXXXXXXXXXXXXXXXXXXXXXXXXXXXXXXXXXXXXXXXXXXXXXXXXXXXXXXXXXXXXXXXXXXXXXXXXXXXXXXXXXXXXXXXXXXXXXXXXXXXXXXXXXXXXXXXXXXXXXXXXXXXXXXXXXXXXXXXXXXXXXXXXXXXXXXXXXXXXXXXX
XXXXXXXXXXXXXXXXXXXXXXXXXXXXXXXXXXXXXXXXXXXXXXXXXXXXXXXXXXXXXXXXXXXXXXXXXXXXXXXXXXXXXXXXXXXXXXXXXXXXXXXXXXXXXXXXXXXXXXXXXXXXXXXXXXXXXXXXXXXXXXXXXXXXXXXXXXXXXXXXXXXXXXXXXXXXXXXXXXXXXXXXXXX
XXXXXXXXXXXXXXXXXXXXXXXXXXXXXXXXXXXXXXXXXXXXXXXXXXXXXXXXXXXXXXXXXXXXXXXXXXXXXXXXXXXXXXXXXXXXXXXXXXXXXXXXXXXXXXXXXXXXXXXXXXXXXXXXXXXXXXXXXXXXXXXXXXXXXXXXXXXXXXXXXXXXXXXXXXXXXXXXXXXXXXXXXXX
XXXXXXXXXXXXXXXXXXXXXXXXXXXXXXXXXXXXXXXXXXXXXXXXXXXXXXXXXXXXXXXXXXXXXXXXXXXXXXXXXXXXXXXXXXXXXXXXXXXXXXXXXXXXXXXXXXXXXXXXXXXXXXXXXXXXXXXXXX

Slot 0 Offset 0x0 Length 0 Length (physical) 0

KeyHashValue = (a0c936a3c965)       
Slot 1 Offset 0x855 Length 2037

Record Type = PRIMARY_RECORD        Record Attributes =  NULL_BITMAP VARIABLE_COLUMNS
Record Size = 2037                  
Memory Dump @0x000000841CD70855

0000000000000000:   3000e507 05000000 43757374 6f6d6572 20303030  0.ĺ.....Customer 000
0000000000000014:   35585858 58585858 58585858 58585858 58585858  5XXXXXXXXXXXXXXXXXXX
0000000000000028:   58585858 58585858 58585858 58585858 58585858  XXXXXXXXXXXXXXXXXXXX
000000000000003C:   58585858 58585858 58585858 58585858 58585858  XXXXXXXXXXXXXXXXXXXX
0000000000000050:   58585858 58585858 58585858 58585858 58585858  XXXXXXXXXXXXXXXXXXXX
0000000000000064:   58585858 58585858 58585858 58585858 58585858  XXXXXXXXXXXXXXXXXXXX
0000000000000078:   58585858 58585858 58585858 58585858 58585858  XXXXXXXXXXXXXXXXXXXX
000000000000008C:   58585858 58585858 58585858 58585858 58585858  XXXXXXXXXXXXXXXXXXXX
00000000000000A0:   58585858 58585858 58585858 58585858 58585858  XXXXXXXXXXXXXXXXXXXX
00000000000000B4:   58585858 58585858 58585858 58585858 58585858  XXXXXXXXXXXXXXXXXXXX
00000000000000C8:   58585858 58585858 58585858 58585858 58585858  XXXXXXXXXXXXXXXXXXXX
00000000000000DC:   58585858 58585858 58585858 58585858 58585858  XXXXXXXXXXXXXXXXXXXX
00000000000000F0:   58585858 58585858 58585858 58585858 58585858  XXXXXXXXXXXXXXXXXXXX
0000000000000104:   58585858 58585858 58585858 58585858 58585858  XXXXXXXXXXXXXXXXXXXX
0000000000000118:   58585858 58585858 58585858 58585858 58585858  XXXXXXXXXXXXXXXXXXXX
000000000000012C:   58585858 58585858 58585858 58585858 58585858  XXXXXXXXXXXXXXXXXXXX
0000000000000140:   58585858 58585858 58585858 58585858 58585858  XXXXXXXXXXXXXXXXXXXX
0000000000000154:   58585858 58585858 58585858 58585858 58585858  XXXXXXXXXXXXXXXXXXXX
0000000000000168:   58585858 58585858 58585858 58585858 58585858  XXXXXXXXXXXXXXXXXXXX
000000000000017C:   58585858 58585858 58585858 58585858 58585858  XXXXXXXXXXXXXXXXXXXX
0000000000000190:   58585858 58585858 58585858 58585858 58585858  XXXXXXXXXXXXXXXXXXXX
00000000000001A4:   58585858 58585858 58585858 58585858 58585858  XXXXXXXXXXXXXXXXXXXX
00000000000001B8:   58585858 58585858 58585858 58585858 58585858  XXXXXXXXXXXXXXXXXXXX
00000000000001CC:   58585858 58585858 58585858 58585858 58585858  XXXXXXXXXXXXXXXXXXXX
00000000000001E0:   58585858 58585858 58585858 58585858 58585858  XXXXXXXXXXXXXXXXXXXX
00000000000001F4:   58585858 58585858 58585858 58585858 58585858  XXXXXXXXXXXXXXXXXXXX
0000000000000208:   58585858 58585858 58585858 58585858 58585858  XXXXXXXXXXXXXXXXXXXX
000000000000021C:   58585858 58585858 58585858 58585858 58585858  XXXXXXXXXXXXXXXXXXXX
0000000000000230:   58585858 58585858 58585858 58585858 58585858  XXXXXXXXXXXXXXXXXXXX
0000000000000244:   58585858 58585858 58585858 58585858 58585858  XXXXXXXXXXXXXXXXXXXX
0000000000000258:   58585858 58585858 58585858 58585858 58585858  XXXXXXXXXXXXXXXXXXXX
000000000000026C:   58585858 58585858 58585858 58585858 58585858  XXXXXXXXXXXXXXXXXXXX
0000000000000280:   58585858 58585858 58585858 58585858 58585858  XXXXXXXXXXXXXXXXXXXX
0000000000000294:   58585858 58585858 58585858 58585858 58585858  XXXXXXXXXXXXXXXXXXXX
00000000000002A8:   58585858 58585858 58585858 58585858 58585858  XXXXXXXXXXXXXXXXXXXX
00000000000002BC:   58585858 58585858 58585858 58585858 58585858  XXXXXXXXXXXXXXXXXXXX
00000000000002D0:   58585858 58585858 58585858 58585858 58585858  XXXXXXXXXXXXXXXXXXXX
00000000000002E4:   58585858 58585858 58585858 58585858 58585858  XXXXXXXXXXXXXXXXXXXX
00000000000002F8:   58585858 58585858 58585858 58585858 58585858  XXXXXXXXXXXXXXXXXXXX
000000000000030C:   58585858 58585858 58585858 58585858 58585858  XXXXXXXXXXXXXXXXXXXX
0000000000000320:   58585858 58585858 58585858 58585858 58585858  XXXXXXXXXXXXXXXXXXXX
0000000000000334:   58585858 58585858 58585858 58585858 58585858  XXXXXXXXXXXXXXXXXXXX
0000000000000348:   58585858 58585858 58585858 58585858 58585858  XXXXXXXXXXXXXXXXXXXX
000000000000035C:   58585858 58585858 58585858 58585858 58585858  XXXXXXXXXXXXXXXXXXXX
0000000000000370:   58585858 58585858 58585858 58585858 58585858  XXXXXXXXXXXXXXXXXXXX
0000000000000384:   58585858 58585858 58585858 58585858 58585858  XXXXXXXXXXXXXXXXXXXX
0000000000000398:   58585858 58585858 58585858 58585858 58585858  XXXXXXXXXXXXXXXXXXXX
00000000000003AC:   58585858 58585858 58585858 58585858 58585858  XXXXXXXXXXXXXXXXXXXX
00000000000003C0:   58585858 58585858 58585858 58585858 58585858  XXXXXXXXXXXXXXXXXXXX
00000000000003D4:   58585858 58585858 58585858 58585858 58585858  XXXXXXXXXXXXXXXXXXXX
00000000000003E8:   58585858 58585858 58585858 58585858 58585858  XXXXXXXXXXXXXXXXXXXX
00000000000003FC:   58585858 58585858 58585858 58585858 58585858  XXXXXXXXXXXXXXXXXXXX
0000000000000410:   58585858 58585858 58585858 58585858 58585858  XXXXXXXXXXXXXXXXXXXX
0000000000000424:   58585858 58585858 58585858 58585858 58585858  XXXXXXXXXXXXXXXXXXXX
0000000000000438:   58585858 58585858 58585858 58585858 58585858  XXXXXXXXXXXXXXXXXXXX
000000000000044C:   58585858 58585858 58585858 58585858 58585858  XXXXXXXXXXXXXXXXXXXX
0000000000000460:   58585858 58585858 58585858 58585858 58585858  XXXXXXXXXXXXXXXXXXXX
0000000000000474:   58585858 58585858 58585858 58585858 58585858  XXXXXXXXXXXXXXXXXXXX
0000000000000488:   58585858 58585858 58585858 58585858 58585858  XXXXXXXXXXXXXXXXXXXX
000000000000049C:   58585858 58585858 58585858 58585858 58585858  XXXXXXXXXXXXXXXXXXXX
00000000000004B0:   58585858 58585858 58585858 58585858 58585858  XXXXXXXXXXXXXXXXXXXX
00000000000004C4:   58585858 58585858 58585858 58585858 58585858  XXXXXXXXXXXXXXXXXXXX
00000000000004D8:   58585858 58585858 58585858 58585858 58585858  XXXXXXXXXXXXXXXXXXXX
00000000000004EC:   58585858 58585858 58585858 58585858 58585858  XXXXXXXXXXXXXXXXXXXX
0000000000000500:   58585858 58585858 58585858 58585858 58585858  XXXXXXXXXXXXXXXXXXXX
0000000000000514:   58585858 58585858 58585858 58585858 58585858  XXXXXXXXXXXXXXXXXXXX
0000000000000528:   58585858 58585858 58585858 58585858 58585858  XXXXXXXXXXXXXXXXXXXX
000000000000053C:   58585858 58585858 58585858 58585858 58585858  XXXXXXXXXXXXXXXXXXXX
0000000000000550:   58585858 58585858 58585858 58585858 58585858  XXXXXXXXXXXXXXXXXXXX
0000000000000564:   58585858 58585858 58585858 58585858 58585858  XXXXXXXXXXXXXXXXXXXX
0000000000000578:   58585858 58585858 58585858 58585858 58585858  XXXXXXXXXXXXXXXXXXXX
000000000000058C:   58585858 58585858 58585858 58585858 58585858  XXXXXXXXXXXXXXXXXXXX
00000000000005A0:   58585858 58585858 58585858 58585858 58585858  XXXXXXXXXXXXXXXXXXXX
00000000000005B4:   58585858 58585858 58585858 58585858 58585858  XXXXXXXXXXXXXXXXXXXX
00000000000005C8:   58585858 58585858 58585858 58585858 58585858  XXXXXXXXXXXXXXXXXXXX
00000000000005DC:   58585858 58585858 58585858 58585858 58585858  XXXXXXXXXXXXXXXXXXXX
00000000000005F0:   58585858 58585858 58585858 58585858 58585858  XXXXXXXXXXXXXXXXXXXX
0000000000000604:   58585858 58585858 58585858 58585858 58585858  XXXXXXXXXXXXXXXXXXXX
0000000000000618:   58585858 58585858 58585858 58585858 58585858  XXXXXXXXXXXXXXXXXXXX
000000000000062C:   58585858 58585858 58585858 58585858 58585858  XXXXXXXXXXXXXXXXXXXX
0000000000000640:   58585858 58585858 58585858 58585858 58585858  XXXXXXXXXXXXXXXXXXXX
0000000000000654:   58585858 58585858 58585858 58585858 58585858  XXXXXXXXXXXXXXXXXXXX
0000000000000668:   58585858 58585858 58585858 58585858 58585858  XXXXXXXXXXXXXXXXXXXX
000000000000067C:   58585858 58585858 58585858 58585858 58585858  XXXXXXXXXXXXXXXXXXXX
0000000000000690:   58585858 58585858 58585858 58585858 58585858  XXXXXXXXXXXXXXXXXXXX
00000000000006A4:   58585858 58585858 58585858 58585858 58585858  XXXXXXXXXXXXXXXXXXXX
00000000000006B8:   58585858 58585858 58585858 58585858 58585858  XXXXXXXXXXXXXXXXXXXX
00000000000006CC:   58585858 58585858 58585858 58585858 58585858  XXXXXXXXXXXXXXXXXXXX
00000000000006E0:   58585858 58585858 58585858 58585858 58585858  XXXXXXXXXXXXXXXXXXXX
00000000000006F4:   58585858 58585858 58585858 58585858 58585858  XXXXXXXXXXXXXXXXXXXX
0000000000000708:   58585858 58585858 58585858 58585858 58585858  XXXXXXXXXXXXXXXXXXXX
000000000000071C:   58585858 58585858 58585858 58585858 58585858  XXXXXXXXXXXXXXXXXXXX
0000000000000730:   58585858 58585858 58585858 58585858 58585858  XXXXXXXXXXXXXXXXXXXX
0000000000000744:   58585858 58585858 58585858 58585858 58585858  XXXXXXXXXXXXXXXXXXXX
0000000000000758:   58585858 58585858 58585858 58585858 58585858  XXXXXXXXXXXXXXXXXXXX
000000000000076C:   58585858 58585858 58585858 58585858 58585858  XXXXXXXXXXXXXXXXXXXX
0000000000000780:   58585858 58585858 58585858 58585858 58585858  XXXXXXXXXXXXXXXXXXXX
0000000000000794:   58585858 58585858 58585858 58585858 58585858  XXXXXXXXXXXXXXXXXXXX
00000000000007A8:   58585858 58585858 58585858 58585858 58585858  XXXXXXXXXXXXXXXXXXXX
00000000000007BC:   58585858 58585858 58585858 58585858 58585858  XXXXXXXXXXXXXXXXXXXX
00000000000007D0:   58585858 58585858 58585858 58585858 58585858  XXXXXXXXXXXXXXXXXXXX
00000000000007E4:   58040000 0100f507 30303035 2d303030 35        X.....ő.0005-0005

Slot 1 Column 1 Offset 0x4 Length 4 Length (physical) 4

CustomerID = 5                      

Slot 1 Column 2 Offset 0x8 Length 13 Length (physical) 13

FullName = Customer 0005            

Slot 1 Column 3 Offset 0x7ec Length 9 Length (physical) 9

PhoneNumber = 0005-0005             

Slot 1 Column 4 Offset 0x15 Length 2000 Length (physical) 2000

Notes = XXXXXXXXXXXXXXXXXXXXXXXXXXXXXXXXXXXXXXXXXXXXXXXXXXXXXXXXXXXXXXXXXXXXXXXXXXXXXXXXXXXXXXXXXXXXXXXXXXXXXXXXXXXXXXXXXXXXXXXXXXXXXXXXXXXXXXXXXXXXXXXXXXXXXXXXXXXXXXXXXXXXXXXXXXXXXXXXXXX
XXXXXXXXXXXXXXXXXXXXXXXXXXXXXXXXXXXXXXXXXXXXXXXXXXXXXXXXXXXXXXXXXXXXXXXXXXXXXXXXXXXXXXXXXXXXXXXXXXXXXXXXXXXXXXXXXXXXXXXXXXXXXXXXXXXXXXXXXXXXXXXXXXXXXXXXXXXXXXXXXXXXXXXXXXXXXXXXXXXXXXXXXXX
XXXXXXXXXXXXXXXXXXXXXXXXXXXXXXXXXXXXXXXXXXXXXXXXXXXXXXXXXXXXXXXXXXXXXXXXXXXXXXXXXXXXXXXXXXXXXXXXXXXXXXXXXXXXXXXXXXXXXXXXXXXXXXXXXXXXXXXXXXXXXXXXXXXXXXXXXXXXXXXXXXXXXXXXXXXXXXXXXXXXXXXXXXX
XXXXXXXXXXXXXXXXXXXXXXXXXXXXXXXXXXXXXXXXXXXXXXXXXXXXXXXXXXXXXXXXXXXXXXXXXXXXXXXXXXXXXXXXXXXXXXXXXXXXXXXXXXXXXXXXXXXXXXXXXXXXXXXXXXXXXXXXXXXXXXXXXXXXXXXXXXXXXXXXXXXXXXXXXXXXXXXXXXXXXXXXXXX
XXXXXXXXXXXXXXXXXXXXXXXXXXXXXXXXXXXXXXXXXXXXXXXXXXXXXXXXXXXXXXXXXXXXXXXXXXXXXXXXXXXXXXXXXXXXXXXXXXXXXXXXXXXXXXXXXXXXXXXXXXXXXXXXXXXXXXXXXXXXXXXXXXXXXXXXXXXXXXXXXXXXXXXXXXXXXXXXXXXXXXXXXXX
XXXXXXXXXXXXXXXXXXXXXXXXXXXXXXXXXXXXXXXXXXXXXXXXXXXXXXXXXXXXXXXXXXXXXXXXXXXXXXXXXXXXXXXXXXXXXXXXXXXXXXXXXXXXXXXXXXXXXXXXXXXXXXXXXXXXXXXXXXXXXXXXXXXXXXXXXXXXXXXXXXXXXXXXXXXXXXXXXXXXXXXXXXX
XXXXXXXXXXXXXXXXXXXXXXXXXXXXXXXXXXXXXXXXXXXXXXXXXXXXXXXXXXXXXXXXXXXXXXXXXXXXXXXXXXXXXXXXXXXXXXXXXXXXXXXXXXXXXXXXXXXXXXXXXXXXXXXXXXXXXXXXXXXXXXXXXXXXXXXXXXXXXXXXXXXXXXXXXXXXXXXXXXXXXXXXXXX
XXXXXXXXXXXXXXXXXXXXXXXXXXXXXXXXXXXXXXXXXXXXXXXXXXXXXXXXXXXXXXXXXXXXXXXXXXXXXXXXXXXXXXXXXXXXXXXXXXXXXXXXXXXXXXXXXXXXXXXXXXXXXXXXXXXXXXXXXXXXXXXXXXXXXXXXXXXXXXXXXXXXXXXXXXXXXXXXXXXXXXXXXXX
XXXXXXXXXXXXXXXXXXXXXXXXXXXXXXXXXXXXXXXXXXXXXXXXXXXXXXXXXXXXXXXXXXXXXXXXXXXXXXXXXXXXXXXXXXXXXXXXXXXXXXXXXXXXXXXXXXXXXXXXXXXXXXXXXXXXXXXXXXXXXXXXXXXXXXXXXXXXXXXXXXXXXXXXXXXXXXXXXXXXXXXXXXX
XXXXXXXXXXXXXXXXXXXXXXXXXXXXXXXXXXXXXXXXXXXXXXXXXXXXXXXXXXXXXXXXXXXXXXXXXXXXXXXXXXXXXXXXXXXXXXXXXXXXXXXXXXXXXXXXXXXXXXXXXXXXXXXXXXXXXXXXXXXXXXXXXXXXXXXXXXXXXXXXXXXXXXXXXXXXXXXXXXXXXXXXXXX
XXXXXXXXXXXXXXXXXXXXXXXXXXXXXXXXXXXXXXXXXXXXXXXXXXXXXXXXXXXXXXXXXXXXXXXXXXXXXXXXXXXXXXXXXXXXXXXXXXXXXXXXXXXXXXXXXXXXXXXXXXXXXXXXXXXXXXXXXX

Slot 1 Offset 0x0 Length 0 Length (physical) 0

KeyHashValue = (59855d342c69)       
Slot 2 Offset 0x104a Length 2037

Record Type = PRIMARY_RECORD        Record Attributes =  NULL_BITMAP VARIABLE_COLUMNS
Record Size = 2037                  
Memory Dump @0x000000841CD7104A

0000000000000000:   3000e507 06000000 43757374 6f6d6572 20303030  0.ĺ.....Customer 000
0000000000000014:   36585858 58585858 58585858 58585858 58585858  6XXXXXXXXXXXXXXXXXXX
0000000000000028:   58585858 58585858 58585858 58585858 58585858  XXXXXXXXXXXXXXXXXXXX
000000000000003C:   58585858 58585858 58585858 58585858 58585858  XXXXXXXXXXXXXXXXXXXX
0000000000000050:   58585858 58585858 58585858 58585858 58585858  XXXXXXXXXXXXXXXXXXXX
0000000000000064:   58585858 58585858 58585858 58585858 58585858  XXXXXXXXXXXXXXXXXXXX
0000000000000078:   58585858 58585858 58585858 58585858 58585858  XXXXXXXXXXXXXXXXXXXX
000000000000008C:   58585858 58585858 58585858 58585858 58585858  XXXXXXXXXXXXXXXXXXXX
00000000000000A0:   58585858 58585858 58585858 58585858 58585858  XXXXXXXXXXXXXXXXXXXX
00000000000000B4:   58585858 58585858 58585858 58585858 58585858  XXXXXXXXXXXXXXXXXXXX
00000000000000C8:   58585858 58585858 58585858 58585858 58585858  XXXXXXXXXXXXXXXXXXXX
00000000000000DC:   58585858 58585858 58585858 58585858 58585858  XXXXXXXXXXXXXXXXXXXX
00000000000000F0:   58585858 58585858 58585858 58585858 58585858  XXXXXXXXXXXXXXXXXXXX
0000000000000104:   58585858 58585858 58585858 58585858 58585858  XXXXXXXXXXXXXXXXXXXX
0000000000000118:   58585858 58585858 58585858 58585858 58585858  XXXXXXXXXXXXXXXXXXXX
000000000000012C:   58585858 58585858 58585858 58585858 58585858  XXXXXXXXXXXXXXXXXXXX
0000000000000140:   58585858 58585858 58585858 58585858 58585858  XXXXXXXXXXXXXXXXXXXX
0000000000000154:   58585858 58585858 58585858 58585858 58585858  XXXXXXXXXXXXXXXXXXXX
0000000000000168:   58585858 58585858 58585858 58585858 58585858  XXXXXXXXXXXXXXXXXXXX
000000000000017C:   58585858 58585858 58585858 58585858 58585858  XXXXXXXXXXXXXXXXXXXX
0000000000000190:   58585858 58585858 58585858 58585858 58585858  XXXXXXXXXXXXXXXXXXXX
00000000000001A4:   58585858 58585858 58585858 58585858 58585858  XXXXXXXXXXXXXXXXXXXX
00000000000001B8:   58585858 58585858 58585858 58585858 58585858  XXXXXXXXXXXXXXXXXXXX
00000000000001CC:   58585858 58585858 58585858 58585858 58585858  XXXXXXXXXXXXXXXXXXXX
00000000000001E0:   58585858 58585858 58585858 58585858 58585858  XXXXXXXXXXXXXXXXXXXX
00000000000001F4:   58585858 58585858 58585858 58585858 58585858  XXXXXXXXXXXXXXXXXXXX
0000000000000208:   58585858 58585858 58585858 58585858 58585858  XXXXXXXXXXXXXXXXXXXX
000000000000021C:   58585858 58585858 58585858 58585858 58585858  XXXXXXXXXXXXXXXXXXXX
0000000000000230:   58585858 58585858 58585858 58585858 58585858  XXXXXXXXXXXXXXXXXXXX
0000000000000244:   58585858 58585858 58585858 58585858 58585858  XXXXXXXXXXXXXXXXXXXX
0000000000000258:   58585858 58585858 58585858 58585858 58585858  XXXXXXXXXXXXXXXXXXXX
000000000000026C:   58585858 58585858 58585858 58585858 58585858  XXXXXXXXXXXXXXXXXXXX
0000000000000280:   58585858 58585858 58585858 58585858 58585858  XXXXXXXXXXXXXXXXXXXX
0000000000000294:   58585858 58585858 58585858 58585858 58585858  XXXXXXXXXXXXXXXXXXXX
00000000000002A8:   58585858 58585858 58585858 58585858 58585858  XXXXXXXXXXXXXXXXXXXX
00000000000002BC:   58585858 58585858 58585858 58585858 58585858  XXXXXXXXXXXXXXXXXXXX
00000000000002D0:   58585858 58585858 58585858 58585858 58585858  XXXXXXXXXXXXXXXXXXXX
00000000000002E4:   58585858 58585858 58585858 58585858 58585858  XXXXXXXXXXXXXXXXXXXX
00000000000002F8:   58585858 58585858 58585858 58585858 58585858  XXXXXXXXXXXXXXXXXXXX
000000000000030C:   58585858 58585858 58585858 58585858 58585858  XXXXXXXXXXXXXXXXXXXX
0000000000000320:   58585858 58585858 58585858 58585858 58585858  XXXXXXXXXXXXXXXXXXXX
0000000000000334:   58585858 58585858 58585858 58585858 58585858  XXXXXXXXXXXXXXXXXXXX
0000000000000348:   58585858 58585858 58585858 58585858 58585858  XXXXXXXXXXXXXXXXXXXX
000000000000035C:   58585858 58585858 58585858 58585858 58585858  XXXXXXXXXXXXXXXXXXXX
0000000000000370:   58585858 58585858 58585858 58585858 58585858  XXXXXXXXXXXXXXXXXXXX
0000000000000384:   58585858 58585858 58585858 58585858 58585858  XXXXXXXXXXXXXXXXXXXX
0000000000000398:   58585858 58585858 58585858 58585858 58585858  XXXXXXXXXXXXXXXXXXXX
00000000000003AC:   58585858 58585858 58585858 58585858 58585858  XXXXXXXXXXXXXXXXXXXX
00000000000003C0:   58585858 58585858 58585858 58585858 58585858  XXXXXXXXXXXXXXXXXXXX
00000000000003D4:   58585858 58585858 58585858 58585858 58585858  XXXXXXXXXXXXXXXXXXXX
00000000000003E8:   58585858 58585858 58585858 58585858 58585858  XXXXXXXXXXXXXXXXXXXX
00000000000003FC:   58585858 58585858 58585858 58585858 58585858  XXXXXXXXXXXXXXXXXXXX
0000000000000410:   58585858 58585858 58585858 58585858 58585858  XXXXXXXXXXXXXXXXXXXX
0000000000000424:   58585858 58585858 58585858 58585858 58585858  XXXXXXXXXXXXXXXXXXXX
0000000000000438:   58585858 58585858 58585858 58585858 58585858  XXXXXXXXXXXXXXXXXXXX
000000000000044C:   58585858 58585858 58585858 58585858 58585858  XXXXXXXXXXXXXXXXXXXX
0000000000000460:   58585858 58585858 58585858 58585858 58585858  XXXXXXXXXXXXXXXXXXXX
0000000000000474:   58585858 58585858 58585858 58585858 58585858  XXXXXXXXXXXXXXXXXXXX
0000000000000488:   58585858 58585858 58585858 58585858 58585858  XXXXXXXXXXXXXXXXXXXX
000000000000049C:   58585858 58585858 58585858 58585858 58585858  XXXXXXXXXXXXXXXXXXXX
00000000000004B0:   58585858 58585858 58585858 58585858 58585858  XXXXXXXXXXXXXXXXXXXX
00000000000004C4:   58585858 58585858 58585858 58585858 58585858  XXXXXXXXXXXXXXXXXXXX
00000000000004D8:   58585858 58585858 58585858 58585858 58585858  XXXXXXXXXXXXXXXXXXXX
00000000000004EC:   58585858 58585858 58585858 58585858 58585858  XXXXXXXXXXXXXXXXXXXX
0000000000000500:   58585858 58585858 58585858 58585858 58585858  XXXXXXXXXXXXXXXXXXXX
0000000000000514:   58585858 58585858 58585858 58585858 58585858  XXXXXXXXXXXXXXXXXXXX
0000000000000528:   58585858 58585858 58585858 58585858 58585858  XXXXXXXXXXXXXXXXXXXX
000000000000053C:   58585858 58585858 58585858 58585858 58585858  XXXXXXXXXXXXXXXXXXXX
0000000000000550:   58585858 58585858 58585858 58585858 58585858  XXXXXXXXXXXXXXXXXXXX
0000000000000564:   58585858 58585858 58585858 58585858 58585858  XXXXXXXXXXXXXXXXXXXX
0000000000000578:   58585858 58585858 58585858 58585858 58585858  XXXXXXXXXXXXXXXXXXXX
000000000000058C:   58585858 58585858 58585858 58585858 58585858  XXXXXXXXXXXXXXXXXXXX
00000000000005A0:   58585858 58585858 58585858 58585858 58585858  XXXXXXXXXXXXXXXXXXXX
00000000000005B4:   58585858 58585858 58585858 58585858 58585858  XXXXXXXXXXXXXXXXXXXX
00000000000005C8:   58585858 58585858 58585858 58585858 58585858  XXXXXXXXXXXXXXXXXXXX
00000000000005DC:   58585858 58585858 58585858 58585858 58585858  XXXXXXXXXXXXXXXXXXXX
00000000000005F0:   58585858 58585858 58585858 58585858 58585858  XXXXXXXXXXXXXXXXXXXX
0000000000000604:   58585858 58585858 58585858 58585858 58585858  XXXXXXXXXXXXXXXXXXXX
0000000000000618:   58585858 58585858 58585858 58585858 58585858  XXXXXXXXXXXXXXXXXXXX
000000000000062C:   58585858 58585858 58585858 58585858 58585858  XXXXXXXXXXXXXXXXXXXX
0000000000000640:   58585858 58585858 58585858 58585858 58585858  XXXXXXXXXXXXXXXXXXXX
0000000000000654:   58585858 58585858 58585858 58585858 58585858  XXXXXXXXXXXXXXXXXXXX
0000000000000668:   58585858 58585858 58585858 58585858 58585858  XXXXXXXXXXXXXXXXXXXX
000000000000067C:   58585858 58585858 58585858 58585858 58585858  XXXXXXXXXXXXXXXXXXXX
0000000000000690:   58585858 58585858 58585858 58585858 58585858  XXXXXXXXXXXXXXXXXXXX
00000000000006A4:   58585858 58585858 58585858 58585858 58585858  XXXXXXXXXXXXXXXXXXXX
00000000000006B8:   58585858 58585858 58585858 58585858 58585858  XXXXXXXXXXXXXXXXXXXX
00000000000006CC:   58585858 58585858 58585858 58585858 58585858  XXXXXXXXXXXXXXXXXXXX
00000000000006E0:   58585858 58585858 58585858 58585858 58585858  XXXXXXXXXXXXXXXXXXXX
00000000000006F4:   58585858 58585858 58585858 58585858 58585858  XXXXXXXXXXXXXXXXXXXX
0000000000000708:   58585858 58585858 58585858 58585858 58585858  XXXXXXXXXXXXXXXXXXXX
000000000000071C:   58585858 58585858 58585858 58585858 58585858  XXXXXXXXXXXXXXXXXXXX
0000000000000730:   58585858 58585858 58585858 58585858 58585858  XXXXXXXXXXXXXXXXXXXX
0000000000000744:   58585858 58585858 58585858 58585858 58585858  XXXXXXXXXXXXXXXXXXXX
0000000000000758:   58585858 58585858 58585858 58585858 58585858  XXXXXXXXXXXXXXXXXXXX
000000000000076C:   58585858 58585858 58585858 58585858 58585858  XXXXXXXXXXXXXXXXXXXX
0000000000000780:   58585858 58585858 58585858 58585858 58585858  XXXXXXXXXXXXXXXXXXXX
0000000000000794:   58585858 58585858 58585858 58585858 58585858  XXXXXXXXXXXXXXXXXXXX
00000000000007A8:   58585858 58585858 58585858 58585858 58585858  XXXXXXXXXXXXXXXXXXXX
00000000000007BC:   58585858 58585858 58585858 58585858 58585858  XXXXXXXXXXXXXXXXXXXX
00000000000007D0:   58585858 58585858 58585858 58585858 58585858  XXXXXXXXXXXXXXXXXXXX
00000000000007E4:   58040000 0100f507 30303036 2d303030 36        X.....ő.0006-0006

Slot 2 Column 1 Offset 0x4 Length 4 Length (physical) 4

CustomerID = 6                      

Slot 2 Column 2 Offset 0x8 Length 13 Length (physical) 13

FullName = Customer 0006            

Slot 2 Column 3 Offset 0x7ec Length 9 Length (physical) 9

PhoneNumber = 0006-0006             

Slot 2 Column 4 Offset 0x15 Length 2000 Length (physical) 2000

Notes = XXXXXXXXXXXXXXXXXXXXXXXXXXXXXXXXXXXXXXXXXXXXXXXXXXXXXXXXXXXXXXXXXXXXXXXXXXXXXXXXXXXXXXXXXXXXXXXXXXXXXXXXXXXXXXXXXXXXXXXXXXXXXXXXXXXXXXXXXXXXXXXXXXXXXXXXXXXXXXXXXXXXXXXXXXXXXXXXXXX
XXXXXXXXXXXXXXXXXXXXXXXXXXXXXXXXXXXXXXXXXXXXXXXXXXXXXXXXXXXXXXXXXXXXXXXXXXXXXXXXXXXXXXXXXXXXXXXXXXXXXXXXXXXXXXXXXXXXXXXXXXXXXXXXXXXXXXXXXXXXXXXXXXXXXXXXXXXXXXXXXXXXXXXXXXXXXXXXXXXXXXXXXXX
XXXXXXXXXXXXXXXXXXXXXXXXXXXXXXXXXXXXXXXXXXXXXXXXXXXXXXXXXXXXXXXXXXXXXXXXXXXXXXXXXXXXXXXXXXXXXXXXXXXXXXXXXXXXXXXXXXXXXXXXXXXXXXXXXXXXXXXXXXXXXXXXXXXXXXXXXXXXXXXXXXXXXXXXXXXXXXXXXXXXXXXXXXX
XXXXXXXXXXXXXXXXXXXXXXXXXXXXXXXXXXXXXXXXXXXXXXXXXXXXXXXXXXXXXXXXXXXXXXXXXXXXXXXXXXXXXXXXXXXXXXXXXXXXXXXXXXXXXXXXXXXXXXXXXXXXXXXXXXXXXXXXXXXXXXXXXXXXXXXXXXXXXXXXXXXXXXXXXXXXXXXXXXXXXXXXXXX
XXXXXXXXXXXXXXXXXXXXXXXXXXXXXXXXXXXXXXXXXXXXXXXXXXXXXXXXXXXXXXXXXXXXXXXXXXXXXXXXXXXXXXXXXXXXXXXXXXXXXXXXXXXXXXXXXXXXXXXXXXXXXXXXXXXXXXXXXXXXXXXXXXXXXXXXXXXXXXXXXXXXXXXXXXXXXXXXXXXXXXXXXXX
XXXXXXXXXXXXXXXXXXXXXXXXXXXXXXXXXXXXXXXXXXXXXXXXXXXXXXXXXXXXXXXXXXXXXXXXXXXXXXXXXXXXXXXXXXXXXXXXXXXXXXXXXXXXXXXXXXXXXXXXXXXXXXXXXXXXXXXXXXXXXXXXXXXXXXXXXXXXXXXXXXXXXXXXXXXXXXXXXXXXXXXXXXX
XXXXXXXXXXXXXXXXXXXXXXXXXXXXXXXXXXXXXXXXXXXXXXXXXXXXXXXXXXXXXXXXXXXXXXXXXXXXXXXXXXXXXXXXXXXXXXXXXXXXXXXXXXXXXXXXXXXXXXXXXXXXXXXXXXXXXXXXXXXXXXXXXXXXXXXXXXXXXXXXXXXXXXXXXXXXXXXXXXXXXXXXXXX
XXXXXXXXXXXXXXXXXXXXXXXXXXXXXXXXXXXXXXXXXXXXXXXXXXXXXXXXXXXXXXXXXXXXXXXXXXXXXXXXXXXXXXXXXXXXXXXXXXXXXXXXXXXXXXXXXXXXXXXXXXXXXXXXXXXXXXXXXXXXXXXXXXXXXXXXXXXXXXXXXXXXXXXXXXXXXXXXXXXXXXXXXXX
XXXXXXXXXXXXXXXXXXXXXXXXXXXXXXXXXXXXXXXXXXXXXXXXXXXXXXXXXXXXXXXXXXXXXXXXXXXXXXXXXXXXXXXXXXXXXXXXXXXXXXXXXXXXXXXXXXXXXXXXXXXXXXXXXXXXXXXXXXXXXXXXXXXXXXXXXXXXXXXXXXXXXXXXXXXXXXXXXXXXXXXXXXX
XXXXXXXXXXXXXXXXXXXXXXXXXXXXXXXXXXXXXXXXXXXXXXXXXXXXXXXXXXXXXXXXXXXXXXXXXXXXXXXXXXXXXXXXXXXXXXXXXXXXXXXXXXXXXXXXXXXXXXXXXXXXXXXXXXXXXXXXXXXXXXXXXXXXXXXXXXXXXXXXXXXXXXXXXXXXXXXXXXXXXXXXXXX
XXXXXXXXXXXXXXXXXXXXXXXXXXXXXXXXXXXXXXXXXXXXXXXXXXXXXXXXXXXXXXXXXXXXXXXXXXXXXXXXXXXXXXXXXXXXXXXXXXXXXXXXXXXXXXXXXXXXXXXXXXXXXXXXXXXXXXXXXX

Slot 2 Offset 0x0 Length 0 Length (physical) 0

KeyHashValue = (b9b173bbe8d5)       


DBCC execution completed. If DBCC printed error messages, contact your system administrator.
DBCC PAGE ('ExamplesDB_MultiplePageRestore', 1, 283, 3);

PAGE: (1:283)


BUFFER:


BUF @0x000001F7892E6840

bpage = 0x000001F616CFA000          bPmmpage = 0x0000000000000000       bsort_r_nextbP = 0x000001F7892E66D0
bsort_r_prevbP = 0x0000000000000000 bhash = 0x0000000000000000          bpageno = (1:283)
bpart = 3                           bstat = 0x109                       breferences = 0
berrcode = 0                        bUse1 = 26469                       bstat2 = 0x0
blog = 0xab21cc8a                   bsampleCount = 0                    bIoCount = 0
resPoolId = 0                       bcputicks = 0                       bReadMicroSec = 775
bDirtyPendingCount = 0              bDirtyContext = 0x0000000000000000  bDbPageBroker = 0x0000000000000000
bdbid = 23                          bpru = 0x000001F604300040           

PAGE HEADER:


Page @0x000001F616CFA000

m_pageId = (1:283)                  m_headerVersion = 1                 m_type = 1
m_typeFlagBits = 0x0                m_level = 0                         m_flagBits = 0x200
m_objId (AllocUnitId.idObj) = 222   m_indexId (AllocUnitId.idInd) = 256 Metadata: AllocUnitId = 72057594052476928
Metadata: PartitionId = 72057594045726720                                Metadata: IndexId = 1
Metadata: ObjectId = 901578250      m_prevPage = (1:282)                m_nextPage = (1:284)
pminlen = 2021                      m_slotCnt = 3                       m_freeCnt = 1979
m_freeData = 6207                   m_reservedCnt = 0                   m_lsn = (39:336:13)
m_xactReserved = 0                  m_xdesId = (0:0)                    m_ghostRecCnt = 0
m_tornBits = 1734458089             DB Frag ID = 1                      

Allocation Status

GAM (1:2) = ALLOCATED               SGAM (1:3) = NOT ALLOCATED          PFS (1:1) = 0x40 ALLOCATED   0_PCT_FULL
DIFF (1:6) = NOT CHANGED            ML (1:7) = NOT MIN_LOGGED           

Slot 0 Offset 0x60 Length 2037

Record Type = PRIMARY_RECORD        Record Attributes =  NULL_BITMAP VARIABLE_COLUMNS
Record Size = 2037                  
Memory Dump @0x000000841CD70060

0000000000000000:   3000e507 07000000 43757374 6f6d6572 20303030  0.ĺ.....Customer 000
0000000000000014:   37585858 58585858 58585858 58585858 58585858  7XXXXXXXXXXXXXXXXXXX
0000000000000028:   58585858 58585858 58585858 58585858 58585858  XXXXXXXXXXXXXXXXXXXX
000000000000003C:   58585858 58585858 58585858 58585858 58585858  XXXXXXXXXXXXXXXXXXXX
0000000000000050:   58585858 58585858 58585858 58585858 58585858  XXXXXXXXXXXXXXXXXXXX
0000000000000064:   58585858 58585858 58585858 58585858 58585858  XXXXXXXXXXXXXXXXXXXX
0000000000000078:   58585858 58585858 58585858 58585858 58585858  XXXXXXXXXXXXXXXXXXXX
000000000000008C:   58585858 58585858 58585858 58585858 58585858  XXXXXXXXXXXXXXXXXXXX
00000000000000A0:   58585858 58585858 58585858 58585858 58585858  XXXXXXXXXXXXXXXXXXXX
00000000000000B4:   58585858 58585858 58585858 58585858 58585858  XXXXXXXXXXXXXXXXXXXX
00000000000000C8:   58585858 58585858 58585858 58585858 58585858  XXXXXXXXXXXXXXXXXXXX
00000000000000DC:   58585858 58585858 58585858 58585858 58585858  XXXXXXXXXXXXXXXXXXXX
00000000000000F0:   58585858 58585858 58585858 58585858 58585858  XXXXXXXXXXXXXXXXXXXX
0000000000000104:   58585858 58585858 58585858 58585858 58585858  XXXXXXXXXXXXXXXXXXXX
0000000000000118:   58585858 58585858 58585858 58585858 58585858  XXXXXXXXXXXXXXXXXXXX
000000000000012C:   58585858 58585858 58585858 58585858 58585858  XXXXXXXXXXXXXXXXXXXX
0000000000000140:   58585858 58585858 58585858 58585858 58585858  XXXXXXXXXXXXXXXXXXXX
0000000000000154:   58585858 58585858 58585858 58585858 58585858  XXXXXXXXXXXXXXXXXXXX
0000000000000168:   58585858 58585858 58585858 58585858 58585858  XXXXXXXXXXXXXXXXXXXX
000000000000017C:   58585858 58585858 58585858 58585858 58585858  XXXXXXXXXXXXXXXXXXXX
0000000000000190:   58585858 58585858 58585858 58585858 58585858  XXXXXXXXXXXXXXXXXXXX
00000000000001A4:   58585858 58585858 58585858 58585858 58585858  XXXXXXXXXXXXXXXXXXXX
00000000000001B8:   58585858 58585858 58585858 58585858 58585858  XXXXXXXXXXXXXXXXXXXX
00000000000001CC:   58585858 58585858 58585858 58585858 58585858  XXXXXXXXXXXXXXXXXXXX
00000000000001E0:   58585858 58585858 58585858 58585858 58585858  XXXXXXXXXXXXXXXXXXXX
00000000000001F4:   58585858 58585858 58585858 58585858 58585858  XXXXXXXXXXXXXXXXXXXX
0000000000000208:   58585858 58585858 58585858 58585858 58585858  XXXXXXXXXXXXXXXXXXXX
000000000000021C:   58585858 58585858 58585858 58585858 58585858  XXXXXXXXXXXXXXXXXXXX
0000000000000230:   58585858 58585858 58585858 58585858 58585858  XXXXXXXXXXXXXXXXXXXX
0000000000000244:   58585858 58585858 58585858 58585858 58585858  XXXXXXXXXXXXXXXXXXXX
0000000000000258:   58585858 58585858 58585858 58585858 58585858  XXXXXXXXXXXXXXXXXXXX
000000000000026C:   58585858 58585858 58585858 58585858 58585858  XXXXXXXXXXXXXXXXXXXX
0000000000000280:   58585858 58585858 58585858 58585858 58585858  XXXXXXXXXXXXXXXXXXXX
0000000000000294:   58585858 58585858 58585858 58585858 58585858  XXXXXXXXXXXXXXXXXXXX
00000000000002A8:   58585858 58585858 58585858 58585858 58585858  XXXXXXXXXXXXXXXXXXXX
00000000000002BC:   58585858 58585858 58585858 58585858 58585858  XXXXXXXXXXXXXXXXXXXX
00000000000002D0:   58585858 58585858 58585858 58585858 58585858  XXXXXXXXXXXXXXXXXXXX
00000000000002E4:   58585858 58585858 58585858 58585858 58585858  XXXXXXXXXXXXXXXXXXXX
00000000000002F8:   58585858 58585858 58585858 58585858 58585858  XXXXXXXXXXXXXXXXXXXX
000000000000030C:   58585858 58585858 58585858 58585858 58585858  XXXXXXXXXXXXXXXXXXXX
0000000000000320:   58585858 58585858 58585858 58585858 58585858  XXXXXXXXXXXXXXXXXXXX
0000000000000334:   58585858 58585858 58585858 58585858 58585858  XXXXXXXXXXXXXXXXXXXX
0000000000000348:   58585858 58585858 58585858 58585858 58585858  XXXXXXXXXXXXXXXXXXXX
000000000000035C:   58585858 58585858 58585858 58585858 58585858  XXXXXXXXXXXXXXXXXXXX
0000000000000370:   58585858 58585858 58585858 58585858 58585858  XXXXXXXXXXXXXXXXXXXX
0000000000000384:   58585858 58585858 58585858 58585858 58585858  XXXXXXXXXXXXXXXXXXXX
0000000000000398:   58585858 58585858 58585858 58585858 58585858  XXXXXXXXXXXXXXXXXXXX
00000000000003AC:   58585858 58585858 58585858 58585858 58585858  XXXXXXXXXXXXXXXXXXXX
00000000000003C0:   58585858 58585858 58585858 58585858 58585858  XXXXXXXXXXXXXXXXXXXX
00000000000003D4:   58585858 58585858 58585858 58585858 58585858  XXXXXXXXXXXXXXXXXXXX
00000000000003E8:   58585858 58585858 58585858 58585858 58585858  XXXXXXXXXXXXXXXXXXXX
00000000000003FC:   58585858 58585858 58585858 58585858 58585858  XXXXXXXXXXXXXXXXXXXX
0000000000000410:   58585858 58585858 58585858 58585858 58585858  XXXXXXXXXXXXXXXXXXXX
0000000000000424:   58585858 58585858 58585858 58585858 58585858  XXXXXXXXXXXXXXXXXXXX
0000000000000438:   58585858 58585858 58585858 58585858 58585858  XXXXXXXXXXXXXXXXXXXX
000000000000044C:   58585858 58585858 58585858 58585858 58585858  XXXXXXXXXXXXXXXXXXXX
0000000000000460:   58585858 58585858 58585858 58585858 58585858  XXXXXXXXXXXXXXXXXXXX
0000000000000474:   58585858 58585858 58585858 58585858 58585858  XXXXXXXXXXXXXXXXXXXX
0000000000000488:   58585858 58585858 58585858 58585858 58585858  XXXXXXXXXXXXXXXXXXXX
000000000000049C:   58585858 58585858 58585858 58585858 58585858  XXXXXXXXXXXXXXXXXXXX
00000000000004B0:   58585858 58585858 58585858 58585858 58585858  XXXXXXXXXXXXXXXXXXXX
00000000000004C4:   58585858 58585858 58585858 58585858 58585858  XXXXXXXXXXXXXXXXXXXX
00000000000004D8:   58585858 58585858 58585858 58585858 58585858  XXXXXXXXXXXXXXXXXXXX
00000000000004EC:   58585858 58585858 58585858 58585858 58585858  XXXXXXXXXXXXXXXXXXXX
0000000000000500:   58585858 58585858 58585858 58585858 58585858  XXXXXXXXXXXXXXXXXXXX
0000000000000514:   58585858 58585858 58585858 58585858 58585858  XXXXXXXXXXXXXXXXXXXX
0000000000000528:   58585858 58585858 58585858 58585858 58585858  XXXXXXXXXXXXXXXXXXXX
000000000000053C:   58585858 58585858 58585858 58585858 58585858  XXXXXXXXXXXXXXXXXXXX
0000000000000550:   58585858 58585858 58585858 58585858 58585858  XXXXXXXXXXXXXXXXXXXX
0000000000000564:   58585858 58585858 58585858 58585858 58585858  XXXXXXXXXXXXXXXXXXXX
0000000000000578:   58585858 58585858 58585858 58585858 58585858  XXXXXXXXXXXXXXXXXXXX
000000000000058C:   58585858 58585858 58585858 58585858 58585858  XXXXXXXXXXXXXXXXXXXX
00000000000005A0:   58585858 58585858 58585858 58585858 58585858  XXXXXXXXXXXXXXXXXXXX
00000000000005B4:   58585858 58585858 58585858 58585858 58585858  XXXXXXXXXXXXXXXXXXXX
